:100000000C942A000C943F000C943F000C943F0089
:100010000C943F000C943F000C943F000C943F0064
:100020000C943F000C943F000C943F000C943F0054
:100030000C943F000C943F000C943F000C943F0044
:100040000C943F000C943F000C943F000C943F0034
:100050000C943F0011241FBECFE5D8E0DEBFCDBF1A
:1000600010E0A0E6B0E0E2E2F3E002C005900D92FD
:10007000A836B107D9F70E9486010C948F010C9421
:1000800000000F931F93CF93DF93CDB7DEB729976F
:100090000FB6F894DEBF0FBECDBF8C01FC0180818E
:1000A000898383818A838FEF8B8391819C83948161
:1000B0009D838E8392819F83958198878987CE01C6
:1000C00001960E94C400CE0104960E94C400CE0195
:1000D00007960E94C400F801658141E0CE010796B1
:1000E0000E94F50029960FB6F894DEBF0FBECDBF73
:1000F000DF91CF911F910F910895CF93DF9300D09F
:100100001F92CDB7DEB7FC018181898364816A8348
:100110008FEF8B838681813031F441E0CE010196EF
:100120000E94F50009C0811106C040E0CE01019691
:100130000E94F50001C080E00F900F900F90DF91BA
:10014000CF9108950F931F93CF93DF9300D01F9209
:10015000CDB7DEB78C01FC018081898383818A83DE
:100160008FEF8B83C8010E947D00F801638141E01D
:10017000CE0101960E94F5000F900F900F90DF9135
:10018000CF911F910F910895FC019081943048F513
:10019000818122812823913079F028F0923099F0E2
:1001A0009330C1F020C03AB3982F9095892F8323C4
:1001B000282B2ABB80E0089597B380958923282BAC
:1001C00027BB80E0089594B380958923282B24BB16
:1001D00080E0089591B380958923282B21BB80E08E
:1001E000089581E0089580E00895FC015081543025
:1001F00008F088C080E090E00DC0262F30E0082E87
:1002000002C0359527950A94E2F720FF02C0782FA7
:1002100004C001968830910584F3513011F130F01B
:100220005230D1F1533009F452C06EC0413061F404
:100230002BB381E090E002C0880F991F7A95E2F716
:10024000822B8BBB80E008952BB381E090E002C04D
:10025000880F991F7A95E2F7809582238BBB80E007
:100260000895413061F428B381E090E002C0880F26
:10027000991F7A95E2F7822B88BB80E0089528B316
:1002800081E090E002C0880F991F7A95E2F780958F
:10029000822388BB80E00895413061F425B381E07A
:1002A00090E002C0880F991F7A95E2F7822B85BBF8
:1002B00080E0089525B381E090E002C0880F991F87
:1002C0007A95E2F78095822385BB80E008954130DE
:1002D00061F422B381E090E002C0880F991F7A9503
:1002E000E2F7822B82BB80E0089522B381E090E0A8
:1002F00002C0880F991F7A95E2F78095822382BB0E
:1003000080E0089581E0089580E0089580E690E01F
:100310000E94410080E690E00E94A200FFCFF89486
:02032000FFCF0D
:080322004242420305060100FE
:00000001FF
