:100000000C942A000C9470110C94A3110C94D6112A
:100010000C9447000C9447000C94480C0C94E20B91
:100020000C94150C0C94AF0B0C9447000C944700E7
:100030000C9447000C9438080C949E080C946B08A0
:100040000C9447000C9447000C9447000C94470014
:100050000C94470011241FBECFE5D8E0DEBFCDBF12
:1000600011E0A0E6B0E0E4E4FCE602C005900D92E9
:10007000A23CB107D9F711E0A2ECB1E001C01D929A
:10008000AA3FB107E1F70E94A7350C9420360C94E3
:100090000000EF92FF920F931F937B018C0120E0F1
:1000A00030E040E05FE40E94F50388238CF0C80153
:1000B000B70120E030E040E05FE40E94C1010E940F
:1000C000B3049B01AC01205030404040504806C072
:1000D000C801B7010E94B3049B01AC01B901CA0178
:1000E0001F910F91FF90EF900895A0E0B0E0EBE733
:1000F000F0E00C94E935DC012B01FA019C9192307F
:1001000008F439C1EB018881823008F433C194309E
:1001100069F4843009F02FC111969C91119789815F
:10012000981709F428C1ABE8B0E025C1843009F480
:1001300021C18230A9F4923009F01DC19A01AD01AC
:1001400088E0EA010990AE01E90109929E0181501F
:10015000C1F7E201898111969C918923818308C1AD
:10016000923009F407C112962D903C901397EB0141
:100170008A819B811496AD90BD90CD90DC901797AD
:10018000EC80FD800E811F819101281B390BB90184
:1001900037FF04C066277727621B730B6032710537
:1001A0000CF061C0121613066CF537014801062EDB
:1001B00004C096948794779467940A94D2F721E0C8
:1001C00030E040E050E004C0220F331F441F551FB1
:1001D0006A95D2F721503040404050402E213F21B7
:1001E00040235123211531054105510521F021E01E
:1001F00030E040E050E079018A01E628F72808293C
:1002000019293CC0232BD1F1260E371E350146019A
:10021000062E04C096948794779467940A94D2F734
:1002200021E030E040E050E004C0220F331F441FC3
:10023000551F6A95D2F721503040404050402A2146
:100240003B214C215D21211531054105510521F04E
:1002500021E030E040E050E059016A01A628B728CB
:10026000C828D9280BC0821593052CF01C01AA249C
:10027000BB24650103C0EE24FF24870111969C91E5
:10028000D20111968C91981709F445C0992339F041
:10029000A80197012A193B094C095D0906C0A6016E
:1002A00095012E193F09400B510B57FD08C01182D3
:1002B0003382228224833583468357831DC081E0A5
:1002C00081833382228288279927DC01821B930B4A
:1002D000A40BB50B84839583A683B7830DC0220F2F
:1002E000331F441F551F24833583468357838281E0
:1002F000938101979383828324813581468157813D
:10030000DA01C9010197A109B1098F5F9F4FAF4F72
:10031000BF4328F30BC0918333822282EA0CFB1C7B
:100320000C1D1D1DE482F5820683178383E0808304
:10033000248135814681578157FF1AC0C901AA27F8
:1003400097FDA095BA2F81709070A070B0705695EF
:10035000479537952795822B932BA42BB52B848318
:100360009583A683B7838281938101969383828349
:10037000DF0101C0D201CD01CDB7DEB7E2E10C94BF
:100380000536A0E2B0E0E7ECF1E00C94F5356983C6
:100390007A838B839C832D833E834F835887E9E048
:1003A000EE2EF12CEC0EFD1ECE010196B7010E943F
:1003B0002B068E010F5E1F4FCE010596B8010E94DD
:1003C0002B068A8991E089278A8BC701B801AE0183
:1003D000475E5F4F0E9475000E945605A096E6E0BA
:1003E0000C941136A0E2B0E0E8EFF1E00C94F535A2
:1003F00069837A838B839C832D833E834F835887C5
:10040000F9E0EF2EF12CEC0EFD1ECE010196B701A6
:100410000E942B068E010F5E1F4FCE010596B8017C
:100420000E942B06C701B801AE01475E5F4F0E94D4
:1004300075000E945605A096E6E00C941136A0E2E5
:10044000B0E0E5E2F2E00C94E93569837A838B83CE
:100450009C832D833E834F835887CE010196BE0136
:10046000675F7F4F0E942B06CE010596BE016F5E2F
:100470007F4F0E942B069985923088F089898230BF
:10048000C8F0943019F4823051F404C0843029F457
:10049000923081F48BE890E0C6C0923049F420E0BD
:1004A0009A858A89981321E02A87CE010996BBC0D4
:1004B000823049F420E09A858A89981321E02A8BBA
:1004C000CE014196B0C02D843E844F8458886D88FB
:1004D0007E888F88988CEE24FF248701AA24BB2471
:1004E000650140E050E060E070E0E0E0F0E0C10174
:1004F00081709070892BE9F0E60CF71C081D191D1E
:100500009A01AB012A0D3B1D4C1D5D1D80E090E062
:10051000A0E0B0E0E614F7040805190520F481E036
:1005200090E0A0E0B0E0BA01A901480F591F6A1F8E
:100530007B1FAA0CBB1CCC1CDD1C97FE08C081E0F5
:1005400090E0A0E0B0E0A82AB92ACA2ADB2A3196B6
:10055000E032F10549F0660C771C881C991C569412
:10056000479437942794C3CFFA85EA892B893C892D
:100570008B859C85280F391F2E5F3F4F17C0CA01FE
:1005800081709070892B61F016950795F794E79428
:1005900080E090E0A0E0B0E8E82AF92A0A2B1B2BC3
:1005A00076956795579547952F5F3F4F77FDE7CF36
:1005B0000CC0440F551F661F771F17FD4160EE0CDE
:1005C000FF1C001F111F21503040403090E05907A0
:1005D00090E0690790E4790760F32B8F3C8FDB0193
:1005E000CA018F779070A070B07080349105A1051A
:1005F000B10561F447FD0AC0E114F10401051105DC
:1006000029F0405C5F4F6F4F7F4F40781A8EFE1786
:1006100011F081E08A8F4D8F5E8F6F8F78A383E01A
:10062000898FCE0149960E945605A096E2E10C946E
:100630000536A8E1B0E0EFE1F3E00C94F135698311
:100640007A838B839C832D833E834F835887B9E0C5
:10065000EB2EF12CEC0EFD1ECE010196B7010E948F
:100660002B068E010F5E1F4FCE010596B8010E942A
:100670002B062985223008F47EC03989323010F4E7
:10068000B8017CC08A859A8989278A87243011F02D
:10069000223031F4231709F06EC06BE870E06EC0B1
:1006A000343039F41D861E861F86188A1C861B86E8
:1006B00004C0323021F484E08987B7015FC02B8504
:1006C0003C858B899C89281B390B3C872B87ED84C3
:1006D000FE840F851889AD88BE88CF88D88CEA142F
:1006E000FB040C051D0540F4EE0CFF1C001F111F40
:1006F000215030403C872B8720E030E040E050E044
:1007000080E090E0A0E0B0E460E070E0EA14FB0478
:100710000C051D0540F0282B392B4A2B5B2BEA18C2
:10072000FB080C091D09B695A79597958795EE0CC2
:10073000FF1C001F111F6F5F7F4F6F31710531F775
:10074000DA01C9018F779070A070B0708034910584
:10075000A105B10561F427FD0AC0E114F10401050A
:10076000110529F0205C3F4F4F4F5F4F20782D87B8
:100770003E874F87588BBE01675F7F4FCB010E943A
:1007800056056896EAE00C940D36A8E1B0E0EBEC73
:10079000F3E00C94F53569837A838B839C832D83F6
:1007A0003E834F83588789E0E82EF12CEC0EFD1E26
:1007B000CE010196B7010E942B068E010F5E1F4FDE
:1007C000CE010596B8010E942B068985823040F043
:1007D0008989823028F0C701B8010E94A30601C0B0
:1007E0008FEF6896E6E00C941136A8E1B0E0EBEFED
:1007F000F3E00C94F53569837A838B839C832D8396
:100800003E834F83588789E0E82EF12CEC0EFD1EC5
:10081000CE010196B7010E942B068E010F5E1F4F7D
:10082000CE010596B8010E942B068985823040F0E2
:100830008989823028F0C701B8010E94A30601C04F
:100840008FEF6896E6E00C941136A8E1B0E0EBE299
:10085000F4E00C94F53569837A838B839C832D8334
:100860003E834F83588789E0E82EF12CEC0EFD1E65
:10087000CE010196B7010E942B068E010F5E1F4F1D
:10088000CE010596B8010E942B068985823040F082
:100890008989823028F0C701B8010E94A30601C0EF
:1008A00081E06896E6E00C941136A8E0B0E0EBE554
:1008B000F4E00C94F2359B01AC0183E08983DA010A
:1008C000C9018827B7FD83959927AA27BB27B82E8A
:1008D000211531054105510519F482E089833AC09B
:1008E0008823A9F0203080E0380780E0480780E8BE
:1008F000580729F460E070E080E09FEC30C0EE24FF
:10090000FF248701E21AF30A040B150B02C07901D8
:100910008A018EE1C82ED12CDC82CB82ED82FE8250
:100920000F831887C801B7010E94070501971816A1
:10093000190684F4082E04C0EE0CFF1C001F111FC2
:100940000A94D2F7ED82FE820F831887C81AD90A5B
:10095000DC82CB82BA82CE0101960E94560528968F
:10096000E9E00C940E36ACE0B0E0E9EBF4E00C9476
:10097000F93569837A838B839C83CE010196BE010E
:100980006B5F7F4F0E942B068D81823061F1823038
:1009900050F1843021F48E81882351F12EC02F81B3
:1009A000388537FD20C06E812F3131051CF066235C
:1009B000F9F023C08EE190E0821B930B29853A85E4
:1009C0004B855C8504C056954795379527958A9544
:1009D000D2F76623B1F050954095309521953F4F61
:1009E0004F4F5F4F0EC020E030E040E050E009C0C4
:1009F0002FEF3FEF4FEF5FE704C020E030E040E033
:100A000050E8B901CA012C96E2E00C941536EF9239
:100A1000FF920F931F937B018C0180E0E81680E02A
:100A2000F80681E0080780E0180788F48FEFE816E1
:100A3000F1040105110531F028F088E090E0A0E014
:100A4000B0E017C080E090E0A0E0B0E012C080E02D
:100A5000E81680E0F80680E0080781E0180728F033
:100A600088E190E0A0E0B0E004C080E190E0A0E088
:100A7000B0E020E230E040E050E0281B390B4A0BA8
:100A80005B0B04C016950795F794E7948A95D2F707
:100A9000F701ED56FF4F8081281B310941095109AB
:100AA000C9011F910F91FF90EF900895DF92EF928F
:100AB000FF920F931F93FC01E480F580068117815C
:100AC000D1808081823048F480E090E0A0E1B0E005
:100AD000E82AF92A0A2B1B2BA5C0843009F49FC0F1
:100AE000823021F4EE24FF24870105C0E114F104D3
:100AF0000105110519F4E0E0F0E096C06281738110
:100B00009FEF623879070CF05BC022E83FEF261BAD
:100B1000370B2A3131052CF020E030E040E050E086
:100B20002AC0B801A701022E04C076956795579593
:100B300047950A94D2F781E090E0A0E0B0E004C0CD
:100B4000880F991FAA1FBB1F2A95D2F70197A109E9
:100B5000B1098E219F21A023B1230097A105B105E2
:100B600021F081E090E0A0E0B0E09A01AB01282BF9
:100B7000392B4A2B5B2BDA01C9018F779070A0705B
:100B8000B07080349105A105B10539F427FF09C083
:100B9000205C3F4F4F4F5F4F04C0215C3F4F4F4F92
:100BA0005F4FE0E0F0E02030A0E03A07A0E04A0725
:100BB000A0E45A0710F0E1E0F0E079018A0127C0D3
:100BC0006038710564F5FB01E158FF4FD801C7019A
:100BD0008F779070A070B07080349105A105B10539
:100BE00039F4E7FE0DC080E490E0A0E0B0E004C07E
:100BF0008FE390E0A0E0B0E0E80EF91E0A1F1B1F93
:100C000017FF05C016950795F794E794319687E08E
:100C100016950795F794E7948A95D1F705C0EE24C9
:100C2000FF248701EFEFF0E06E2F67956627679549
:100C3000902F9F77D794DD24D7948E2F8695492FB8
:100C4000462B582F5D29B701CA011F910F91FF90C4
:100C5000EF90DF900895FC01DB01408151812281FA
:100C6000622F6F7770E0221F2227221F9381892F26
:100C7000880F822B282F30E0991F9927991F1196F2
:100C80009C93119721153105A9F541155105610571
:100C9000710511F482E037C082E89FEF13969C93B0
:100CA0008E9312979A01AB0167E0220F331F441F06
:100CB000551F6A95D1F783E08C930DC0220F331F27
:100CC000441F551F12968D919C911397019713966F
:100CD0009C938E931297203080E0380780E048077D
:100CE00080E4580758F314962D933D934D935C93ED
:100CF000179708952F3F310579F441155105610586
:100D0000710519F484E08C93089564FF03C081E0B9
:100D10008C9312C01C9210C02F57304013963C93F6
:100D20002E93129783E08C9387E0440F551F661F24
:100D3000771F8A95D1F7706414964D935D936D93E8
:100D40007C93179708951F93DC01FB019C919230CF
:100D500008F447C08081823008F443C0943051F4D5
:100D600011961C91843099F58181682F70E0611B88
:100D700071093FC0843021F0923031F48230B9F1F2
:100D80008181882389F12DC011961C9111978230A1
:100D9000F1F081811817D9F412962D913C91139797
:100DA000828193818217930794F028173907BCF04A
:100DB00014968D919D910D90BC91A02D248135812B
:100DC00046815781281739074A075B0718F4112312
:100DD00041F00AC082179307A407B50740F4112316
:100DE00019F061E070E005C06FEF7FEF02C060E0D6
:100DF00070E0CB011F910895DF93CF93CDB7DEB79D
:100E000029970FB6F894DEBF0FBECDBF6E837F83E8
:100E1000888799871D828E819F81A885B985880FD3
:100E2000991FAA1FBB1F880F991FAA1FBB1F880FDE
:100E3000991FAA1FBB1F880F991FAA1FBB1F9C01C8
:100E4000AD0180E094E2A4EFB0E0BC01CD010E94CE
:100E5000C735DA01C9010197A109B10989839A83CC
:100E6000AB83BC83A0E4B0E0E0E4F0E080818F7766
:100E70008C93E0E4F0E089819A81AB81BC81892F79
:100E80009A2FAB2FBB278083E9E2F0E08981808332
:100E9000EAE2F0E088E18083E0E4F0E086E8808345
:100EA0008D8129960FB6F894DEBF0FBECDBFCF91CE
:100EB000DF910895DF93CF9300D0CDB7DEB78A835B
:100EC0001982EBE2F0E08081882F90E080729070D0
:100ED0000097B9F3ECE2F0E08A81808389810F907A
:100EE0000F90CF91DF910895DF93CF930F92CDB7FD
:100EF000DEB71982AAE2B0E0EAE2F0E08081806425
:100F00008C93789489810F90CF91DF910895DF932E
:100F1000CF930F92CDB7DEB71982AAE2B0E0EAE232
:100F2000F0E0808180628C93789489810F90CF91DA
:100F3000DF910895DF93CF9300D000D00F92CDB70B
:100F4000DEB79D838C831A8219820FC08981282F76
:100F500030E08C819D81FC01E20FF31F80810E94B3
:100F60005A078B8389818F5F89838981282F30E09D
:100F70008C819D81FC01E20FF31F8081882331F772
:100F80008A810F900F900F900F900F90CF91DF916B
:100F90000895DF93CF93CDB7DEB7EBE2F0E0808129
:100FA0008823DCF7ECE2F0E080810E94182CECE270
:100FB000F0E08081CF91DF910895DF93CF930F927E
:100FC000CDB7DEB71982AAE2B0E0EAE2F0E08081B4
:100FD00080688C93789489810F90CF91DF910895E8
:100FE000DF93CF9300D000D000D0CDB7DEB79B8386
:100FF0008A836C8319828C81282F30E03E832D8375
:101000008D819E8181309105A1F02D813E8122301C
:101010003105D1F08D819E81009701F58A819B81F8
:101020000097E1F08A819B819093C3018093C20174
:1010300015C08A819B81009789F08A819B8190935A
:10104000C5018093C4010AC08A819B81009731F059
:101050008A819B819093C7018093C60189812696DE
:101060000FB6F894DEBF0FBECDBFCF91DF910895CC
:101070001F920F920FB60F9211242F933F934F930D
:101080005F936F937F938F939F93AF93BF93EF93F0
:10109000FF93DF93CF93CDB7DEB78091C6019091D8
:1010A000C701009729F0E091C601F091C7010995A9
:1010B000CF91DF91FF91EF91BF91AF919F918F9170
:1010C0007F916F915F914F913F912F910F900FBE44
:1010D0000F901F9018951F920F920FB60F92112428
:1010E0002F933F934F935F936F937F938F939F9330
:1010F000AF93BF93EF93FF93DF93CF93CDB7DEB75B
:101100008091C4019091C501009729F0E091C4013C
:10111000F091C5010995CF91DF91FF91EF91BF91BA
:10112000AF919F918F917F916F915F914F913F917F
:101130002F910F900FBE0F901F9018951F920F9236
:101140000FB60F9211242F933F934F935F936F939A
:101150007F938F939F93AF93BF93EF93FF93DF930F
:10116000CF93CDB7DEB78091C2019091C3010097B4
:1011700029F0E091C201F091C3010995CF91DF916F
:10118000FF91EF91BF91AF919F918F917F916F915F
:101190005F914F913F912F910F900FBE0F901F9035
:1011A0001895DF93CF9300D000D00F92CDB7DEB764
:1011B0008A836B8319828A81282F30E03D832C83B8
:1011C0008C819D818230910509F45CC02C813D8128
:1011D0002330310554F48C819D810097C9F02C8116
:1011E0003D812130310589F1C0C08C819D818430E1
:1011F000910509F49EC02C813D81243031050CF409
:101200005EC08C819D818530910509F475C0ADC0AB
:10121000AFE4B0E0EFE4F0E080818E7F8C93AFE448
:10122000B0E0EFE4F0E080818D7F8C93AEE4B0E03D
:10123000EEE4F0E08081877F8C93AEE4B0E0EEE4F2
:10124000F0E080818F7E8C9390C0AFE4B0E0EFE45B
:10125000F0E080818E7F8C93AFE4B0E0EFE4F0E0CB
:1012600080818D7F8C93AEE4B0E0EEE4F0E080818D
:1012700088608C93AEE4B0E0EEE4F0E080818061C1
:101280008C9373C0AFE4B0E0EFE4F0E080818E7F38
:101290008C93AFE4B0E0EFE4F0E080818D7F8C933D
:1012A000AEE4B0E0EEE4F0E0808188608C93AEE4E0
:1012B000B0E0EEE4F0E080818F7E8C9356C0AFE426
:1012C000B0E0EFE4F0E080818E7F8C93AFE4B0E09B
:1012D000EFE4F0E0808182608C93AEE4B0E0EEE475
:1012E000F0E0808188608C93AEE4B0E0EEE4F0E062
:1012F000808180618C9339C0AFE4B0E0EFE4F0E02E
:10130000808181608C93AFE4B0E0EFE4F0E0808115
:101310008D7F8C93AEE4B0E0EEE4F0E080818860F5
:101320008C93AEE4B0E0EEE4F0E080818F7E8C93AD
:101330001CC0AFE4B0E0EFE4F0E0808181608C930A
:10134000AFE4B0E0EFE4F0E0808182608C93AEE443
:10135000B0E0EEE4F0E0808188608C93AEE4B0E031
:10136000EEE4F0E0808180618C93AEE4B0E0EEE4E6
:10137000F0E08081887F8C93AEE4B0E0EEE4F0E0B2
:1013800090818B81892B8C9389810F900F900F9086
:101390000F900F90CF91DF910895DF93CF9300D0FE
:1013A00000D0CDB7DEB78A8319828A81282F30E03A
:1013B0003C832B838B819C818130910521F12B8192
:1013C0003C81223031052CF48B819C81009761F0A7
:1013D00046C02B813C812230310521F18B819C81DB
:1013E0008330910571F13BC0AFE4B0E0EFE4F0E091
:1013F00080818F7B8C93AFE4B0E0EFE4F0E08081FC
:101400008F778C932CC0AFE4B0E0EFE4F0E0808104
:1014100080648C93AFE4B0E0EFE4F0E080818F77FC
:101420008C931DC0AFE4B0E0EFE4F0E080818F7BEF
:101430008C93AFE4B0E0EFE4F0E0808180688C93BF
:101440000EC0AFE4B0E0EFE4F0E0808180648C9304
:10145000AFE4B0E0EFE4F0E0808180688C938981B4
:101460000F900F900F900F90CF91DF910895DF9321
:10147000CF9300D000D0CDB7DEB78A8319828A819E
:10148000282F30E03C832B838B819C818130910518
:1014900021F12B813C81223031052CF48B819C8100
:1014A000009761F046C02B813C812230310521F14B
:1014B0008B819C818330910571F13BC0AFE4B0E03A
:1014C000EFE4F0E080818F7E8C93AFE4B0E0EFE456
:1014D000F0E080818F7D8C932CC0AFE4B0E0EFE42E
:1014E000F0E0808180618C93AFE4B0E0EFE4F0E065
:1014F00080818F7D8C931DC0AFE4B0E0EFE4F0E01D
:1015000080818F7E8C93AFE4B0E0EFE4F0E08081E7
:1015100080628C930EC0AFE4B0E0EFE4F0E0808135
:1015200080618C93AFE4B0E0EFE4F0E08081806212
:101530008C9389810F900F900F900F90CF91DF9136
:101540000895DF93CF9300D0CDB7DEB78A83198299
:101550008A81882341F4AEE4B0E0EEE4F0E08081DB
:1015600080648C930AC08A81813039F4AEE4B0E0A3
:10157000EEE4F0E080818F7B8C9389810F900F9057
:10158000CF91DF910895DF93CF93CDB7DEB7A9E573
:10159000B0E0E9E5F0E0808180628C93CF91DF914B
:1015A0000895DF93CF93CDB7DEB7A9E5B0E0E9E5C5
:1015B000F0E080818F7D8C93CF91DF910895DF9350
:1015C000CF93CDB7DEB7A9E5B0E0E9E5F0E08081E3
:1015D00084608C93CF91DF910895DF93CF93CDB743
:1015E000DEB7A9E5B0E0E9E5F0E080818B7F8C9380
:1015F000CF91DF910895DF93CF93CDB7DEB7A9E503
:10160000B0E0E9E5F0E0808180618C93CF91DF91DB
:101610000895DF93CF93CDB7DEB7A9E5B0E0E9E554
:10162000F0E080818F7E8C93CF91DF910895DF93DE
:10163000CF93CDB7DEB7A9E5B0E0E9E5F0E0808172
:1016400088608C93CF91DF910895DF93CF93CDB7CE
:10165000DEB7A9E5B0E0E9E5F0E08081877F8C9313
:10166000CF91DF910895DF93CF9300D00F92CDB744
:10167000DEB79B838A8381E089838A819B8100977F
:1016800019F482E0898307C08A819B819093C90104
:101690008093C801198289810F900F900F90CF918C
:1016A000DF910895DF93CF9300D00F92CDB7DEB7CF
:1016B0009B838A8381E089838A819B81009719F4C7
:1016C00082E0898307C08A819B819093CB018093BC
:1016D000CA01198289810F900F900F90CF91DF91ED
:1016E0000895DF93CF9300D00F92CDB7DEB79B83E1
:1016F0008A8381E089838A819B81009719F482E043
:10170000898307C08A819B819093CD018093CC010E
:10171000198289810F900F900F90CF91DF910895DA
:10172000DF93CF9300D00F92CDB7DEB79B838A8330
:1017300081E089838A819B81009719F482E0898303
:1017400007C08A819B819093CF018093CE0119823B
:1017500089810F900F900F90CF91DF9108951F9284
:101760000F920FB60F9211242F933F934F935F93D5
:101770006F937F938F939F93AF93BF93EF93FF9359
:10178000DF93CF93CDB7DEB78091C8019091C901A7
:10179000009729F0E091C801F091C9010995CF9116
:1017A000DF91FF91EF91BF91AF919F918F917F91C9
:1017B0006F915F914F913F912F910F900FBE0F90BE
:1017C0001F9018951F920F920FB60F9211242F930E
:1017D0003F934F935F936F937F938F939F93AF93B9
:1017E000BF93EF93FF93DF93CF93CDB7DEB7809195
:1017F000CA019091CB01009729F0E091CA01F091C4
:10180000CB010995CF91DF91FF91EF91BF91AF91FE
:101810009F918F917F916F915F914F913F912F9108
:101820000F900FBE0F901F9018951F920F920FB63A
:101830000F9211242F933F934F935F936F937F9356
:101840008F939F93AF93BF93EF93FF93DF93CF93C8
:10185000CDB7DEB78091CC019091CD01009729F0F2
:10186000E091CC01F091CD010995CF91DF91FF91ED
:10187000EF91BF91AF919F918F917F916F915F9108
:101880004F913F912F910F900FBE0F901F90189581
:101890001F920F920FB60F9211242F933F934F93E5
:1018A0005F936F937F938F939F93AF93BF93EF93C8
:1018B000FF93DF93CF93CDB7DEB78091CE019091A8
:1018C000CF01009729F0E091CE01F091CF01099569
:1018D000CF91DF91FF91EF91BF91AF919F918F9148
:1018E0007F916F915F914F913F912F910F900FBE1C
:1018F0000F901F901895DF93CF9300D000D0CDB7F5
:10190000DEB78A83E2E5F0E01082A3E5B0E0E3E52C
:10191000F0E0808180688C938A81282F30E03C83BE
:101920002B838B819C8181309105E9F02B813C8157
:10193000223031052CF48B819C81009761F038C0F6
:101940002B813C8122303105E9F08B819C818330F1
:10195000910501F12DC0A3E5B0E0E3E5F0E0808161
:1019600081608C9325C0A3E5B0E0E3E5F0E08081E1
:1019700081608C93A3E5B0E0E3E5F0E080818260D4
:101980008C9316C0A3E5B0E0E3E5F0E080818460CD
:101990008C930EC0A3E5B0E0E3E5F0E080818160C8
:1019A0008C93A3E5B0E0E3E5F0E0808184608C9364
:1019B000A9E5B0E0E9E5F0E0808181608C93898160
:1019C0000F900F900F900F90CF91DF910895DF93BC
:1019D000CF9300D000D00F92CDB7DEB78A836B8350
:1019E000E2E5F0E01082ECE5F0E08B818083A3E596
:1019F000B0E0E3E5F0E0808180688C93A3E5B0E09F
:101A0000E3E5F0E0808188608C938A81282F30E0C4
:101A10003D832C838C819D8181309105E9F02C815F
:101A20003D81223031052CF48C819D81009761F03D
:101A300038C02C813D8122303105E9F08C819D81B7
:101A40008330910501F12DC0A3E5B0E0E3E5F0E0BE
:101A5000808181608C9325C0A3E5B0E0E3E5F0E0F0
:101A6000808181608C93A3E5B0E0E3E5F0E08081C4
:101A700082608C9316C0A3E5B0E0E3E5F0E08081DE
:101A800084608C930EC0A3E5B0E0E3E5F0E08081D4
:101A900081608C93A3E5B0E0E3E5F0E080818460B1
:101AA0008C93A9E5B0E0E9E5F0E0808182608C9359
:101AB00089810F900F900F900F900F90CF91DF9131
:101AC0000895DF93CF9300D000D00F92CDB7DEB74B
:101AD0008A836B83E2E5F0E01082ECE5F0E08B8135
:101AE0008083A7E3B0E0E7E3F0E0808188608C9337
:101AF000A3E5B0E0E3E5F0E0808180648C93A3E5AA
:101B0000B0E0E3E5F0E0808182608C93A3E5B0E093
:101B1000E3E5F0E0808180628C938A81282F30E0B9
:101B20003D832C838C819D8181309105E9F02C814E
:101B30003D81223031052CF48C819D81009761F02C
:101B400038C02C813D8122303105E9F08C819D81A6
:101B50008330910501F12DC0A3E5B0E0E3E5F0E0AD
:101B6000808181608C9325C0A3E5B0E0E3E5F0E0DF
:101B7000808181608C93A3E5B0E0E3E5F0E08081B3
:101B800082608C9316C0A3E5B0E0E3E5F0E08081CD
:101B900084608C930EC0A3E5B0E0E3E5F0E08081C3
:101BA00081608C93A3E5B0E0E3E5F0E080818460A0
:101BB0008C9380E00F900F900F900F900F90CF912B
:101BC000DF910895DF93CF9300D000D00F92CDB76F
:101BD000DEB78A836B83E2E5F0E01082ECE5F0E0AB
:101BE0008B818083A7E3B0E0E7E3F0E08081886049
:101BF0008C93A3E5B0E0E3E5F0E0808180648C9312
:101C0000A3E5B0E0E3E5F0E0808180628C938A8117
:101C1000282F30E03D832C838C819D81813091057C
:101C2000E9F02C813D81223031052CF48C819D819D
:101C3000009761F038C02C813D8122303105E9F0F8
:101C40008C819D818330910501F12DC0A3E5B0E029
:101C5000E3E5F0E0808181608C9325C0A3E5B0E0EE
:101C6000E3E5F0E0808181608C93A3E5B0E0E3E5FB
:101C7000F0E0808182608C9316C0A3E5B0E0E3E5DC
:101C8000F0E0808184608C930EC0A3E5B0E0E3E5D2
:101C9000F0E0808181608C93A3E5B0E0E3E5F0E0C3
:101CA000808184608C9389810F900F900F900F90AA
:101CB0000F90CF91DF9108950F931F93DF93CF93F0
:101CC000CDB7DEB700E210E0E1E2F0E0108220E004
:101CD00030E040E050E460E070E080E193E40E9496
:101CE0001903DC01CB01BC01CD010E944900DC01DC
:101CF000CB01F8018083CF91DF911F910F9108955F
:101D0000DF93CF9300D00F92CDB7DEB78A83E6E59D
:101D1000F0E084EA8083E6E5F0E080818823DCF768
:101D2000E1E2F0E08081887F89838981883011F049
:101D30001B8220C0E3E2F0E08A818083E6E5F0E0E8
:101D400084E88083E6E5F0E080818823DCF7E1E247
:101D5000F0E08081887F89838981883119F481E06E
:101D60008B8308C08981803219F482E08B8302C0A2
:101D700083E08B838B810F900F900F90CF91DF9139
:101D80000895DF93CF9300D00F92CDB7DEB78A834B
:101D9000E6E5F0E084EA8083E6E5F0E080818823F0
:101DA000DCF7E1E2F0E08081887F898389818031FE
:101DB00011F01B8220C0E3E2F0E08A818083E6E537
:101DC000F0E084E88083E6E5F0E080818823DCF7BA
:101DD000E1E2F0E08081887F89838981803419F491
:101DE00081E08B8308C08981803219F482E08B8383
:101DF00002C083E08B838B810F900F900F90CF9167
:101E0000DF910895DF93CF93CDB7DEB7E6E5F0E03D
:101E100084E98083E6E5F0E08081882F90E080719E
:101E200090700097B9F7CF91DF910895DF93CF932A
:101E300000D0CDB7DEB78A83E6E5F0E084EA8083A0
:101E4000E6E5F0E080818823DCF7E1E2F0E08081E4
:101E5000887F89838981883079F7E3E2F0E08A819D
:101E60008083E6E5F0E084E88083E6E5F0E08081C9
:101E70008823DCF7E1E2F0E08081887F8983898133
:101E8000883119F00E94020FD7CF0F900F90CF9199
:101E9000DF910895DF93CF9300D00F92CDB7DEB7D7
:101EA0008A83E3E2F0E08A818083E6E5F0E084E87B
:101EB0008083E6E5F0E080818823DCF7E1E2F0E072
:101EC0008081887F89838981883211F41B8208C0D0
:101ED0008981803319F481E08B8302C082E08B8397
:101EE0008B810F900F900F90CF91DF910895DF932A
:101EF000CF93CDB7DEB7E6E5F0E084EC8083E6E58E
:101F0000F0E080818823DCF7E3E2F0E08081882F35
:101F100090E0CF91DF910895DF93CF93CDB7DEB7F7
:101F2000E6E5F0E084E88083E6E5F0E08081882360
:101F3000DCF7E3E2F0E08081882F90E0CF91DF9141
:101F40000895DF93CF93CDB7DEB7E0E2F0E08CE009
:101F50008083E1E2F0E01082E2E2F0E082E0808360
:101F6000E6E5F0E084E08083CF91DF910895DF9390
:101F7000CF93CDB7DEB7E6E5F0E084EA8083E6E50F
:101F8000F0E080818823DCF7CF91DF910895DF9323
:101F9000CF93CDB7DEB7E6E5F0E084E98083CF915B
:101FA000DF910895DF93CF930F92CDB7DEB789838A
:101FB000E3E2F0E089818083E6E5F0E084E8808375
:101FC000E6E5F0E080818823DCF70F90CF91DF9188
:101FD0000895DF93CF93CDB7DEB7E6E5F0E084EC6C
:101FE0008083E6E5F0E080818823DCF7E3E2F0E03F
:101FF0008081CF91DF910895DF93CF93CDB7DEB786
:10200000E6E5F0E084E88083E6E5F0E0808188237F
:10201000DCF7E3E2F0E08081CF91DF910895DF9378
:10202000CF930F92CDB7DEB7E1E2F0E08081887FF9
:10203000898389810F90CF91DF910895DF93CF93AA
:1020400000D000D0CDB7DEB78A83198278948A8118
:10205000282F30E03C832B838B819C81813091053C
:1020600001F12B813C81223031052CF48B819C8144
:10207000009761F036C02B813C8122303105E1F0C0
:102080008B819C818330910511F12BC0A5E5B0E0D7
:10209000E5E5F0E0808191818C7F11969C938E9391
:1020A00020C0A5E5B0E0E5E5F0E0808191818160A8
:1020B00011969C938E9315C0A5E5B0E0E5E5F0E0A0
:1020C00080819181826011969C938E930AC0A5E5D0
:1020D000B0E0E5E5F0E080819181836011969C930A
:1020E0008E93ABE5B0E0EBE5F0E080819181806418
:1020F00011969C938E9389810F900F900F900F9063
:10210000CF91DF910895DF93CF9300D000D0CDB76A
:10211000DEB78A83198278948A81282F30E03C8345
:102120002B838B819C818130910501F12B813C8136
:10213000223031052CF48B819C81009761F036C0F0
:102140002B813C8122303105E1F08B819C818330F1
:10215000910511F12BC0A5E5B0E0E5E5F0E0808147
:102160009181837F11969C938E9320C0A5E5B0E06A
:10217000E5E5F0E080819181846011969C938E93D7
:1021800015C0A5E5B0E0E5E5F0E0808191818860CB
:1021900011969C938E930AC0A5E5B0E0E5E5F0E0CA
:1021A000808191818C6011969C938E93ABE5B0E019
:1021B000EBE5F0E080819181806811969C938E938D
:1021C00089810F900F900F900F90CF91DF9108951C
:1021D000DF93CF9300D000D0CDB7DEB78A831982CA
:1021E00078948A81282F30E03C832B838B819C81DB
:1021F0008230910531F02B813C812330310561F033
:1022000015C0A4E5B0E0E4E5F0E0808191818F7B2A
:1022100011969C938E930AC0A4E5B0E0E4E5F0E04B
:1022200080819181806411969C938E93ABE5B0E0A0
:10223000EBE5F0E080819181806211969C938E9312
:1022400089810F900F900F900F90CF91DF9108959B
:10225000DF93CF9300D000D000D0CDB7DEB79B8303
:102260008A836C8319828C81282F30E03E832D83F2
:102270008D819E8181309105A1F02D813E8122309A
:102280003105D1F08D819E81009701F58A819B8176
:102290000097E1F08A819B819093D1018093D001D6
:1022A00015C08A819B81009789F08A819B819093D8
:1022B000D3018093D2010AC08A819B81009731F0BB
:1022C0008A819B819093D5018093D4018981269640
:1022D0000FB6F894DEBF0FBECDBFCF91DF9108954A
:1022E0001F920F920FB60F9211242F933F934F938B
:1022F0005F936F937F938F939F93AF93BF93EF936E
:10230000FF93DF93CF93CDB7DEB78091D00190914B
:10231000D101009729F0E091D001F091D101099508
:10232000CF91DF91FF91EF91BF91AF919F918F91ED
:102330007F916F915F914F913F912F910F900FBEC1
:102340000F901F9018951F920F920FB60F921124A5
:102350002F933F934F935F936F937F938F939F93AD
:10236000AF93BF93EF93FF93DF93CF93CDB7DEB7D8
:102370008091D2019091D301009729F0E091D20190
:10238000F091D3010995CF91DF91FF91EF91BF912A
:10239000AF919F918F917F916F915F914F913F91FD
:1023A0002F910F900FBE0F901F9018951F920F92B4
:1023B0000FB60F9211242F933F934F935F936F9318
:1023C0007F938F939F93AF93BF93EF93FF93DF938D
:1023D000CF93CDB7DEB78091D4019091D50100970E
:1023E00029F0E091D401F091D5010995CF91DF91C9
:1023F000FF91EF91BF91AF919F918F917F916F91DD
:102400005F914F913F912F910F900FBE0F901F90B2
:102410001895DF93CF9300D000D0CDB7DEB79A8365
:1024200089836B830E94B70F0E940F10883011F0D0
:102430001C8228C089819A8180709770880F892FAB
:10244000881F990B9195806A0E94D20F0E940F10ED
:10245000883111F01C8216C089810E94D20F0E941F
:102460000F10883211F01C820DC08B810E94D20F98
:102470000E940F10883211F01C8204C00E94C70F06
:1024800081E08C838C810F900F900F900F90CF91F3
:10249000DF910895DF93CF9300D000D00F92CDB796
:1024A000DEB79A8389837C836B830E94B70F0E9477
:1024B0000F10883011F01D8244C089819A8180708C
:1024C0009770880F892F881F990B9195806A0E94B9
:1024D000D20F0E940F10883111F01D8232C0898105
:1024E0000E94D20F0E940F10883211F01D8229C065
:1024F0000E94B70F0E940F10803111F01D8221C081
:1025000089819A8180709770880F892F881F990B15
:102510009195816A0E94D20F0E940F10803411F0B1
:102520001D820FC00E94FC0FEB81FC8180830E9402
:102530000F10883511F01D8204C00E94C70F81E082
:102540008D838D810F900F900F900F900F90CF91F2
:10255000DF910895DF93CF93CDB7DEB727970FB6FE
:10256000F894DEBF0FBECDBF9D838C831B82EC81B0
:10257000FD818081843018F081E08B836CC0EC8118
:10258000FD819181EC81FD81828189238983EC81A8
:10259000FD818081282F30E03F832E838E819F81B3
:1025A0008130910531F12E813F81223031052CF4AB
:1025B0008E819F81009761F04EC02E813F81223035
:1025C000310541F18E819F8183309105A1F143C096
:1025D000EAE3F0E08081982FEC81FD818181809594
:1025E00089238A83EAE3F0E09A818981892B8083B9
:1025F00032C0E7E3F0E08081982FEC81FD8181819A
:10260000809589238A83E7E3F0E09A818981892B89
:10261000808321C0E4E3F0E08081982FEC81FD818C
:102620008181809589238A83E4E3F0E09A8189811E
:10263000892B808310C0E1E3F0E08081982FEC814A
:10264000FD818181809589238A83E1E3F0E09A818D
:102650008981892B80838B8127960FB6F894DEBF02
:102660000FBECDBFCF91DF910895DF93CF9300D000
:1026700000D00F92CDB7DEB79B838A831982EA819F
:10268000FB818081843018F081E0898344C0EA8135
:10269000FB818081282F30E03D832C838C819D81BC
:1026A00081309105F1F02C813D81223031052CF4EF
:1026B0008C819D81009761F02EC02C813D8122305C
:1026C0003105C1F08C819D8183309105E1F023C0FB
:1026D000EAE3F0E0AA81BB8112968C911297808385
:1026E0001AC0E7E3F0E0AA81BB8112968C911297A1
:1026F000808311C0E4E3F0E0AA81BB8112968C9143
:102700001297808308C0E1E3F0E0AA81BB811296B2
:102710008C911297808389810F900F900F900F906A
:102720000F90CF91DF910895DF93CF93CDB7DEB7B0
:1027300027970FB6F894DEBF0FBECDBF9D838C8365
:102740001B82EC81FD818081843018F081E08B83D5
:102750006CC0EC81FD819181EC81FD8182818923B6
:102760008983EC81FD818081282F30E03F832E8397
:102770008E819F818130910531F12E813F81223000
:1027800031052CF48E819F81009761F04EC02E811F
:102790003F812230310541F18E819F818330910547
:1027A000A1F143C0EAE3F0E08081982FEC81FD8144
:1027B0008181809589238A83EAE3F0E09A81898187
:1027C000892B808332C0E7E3F0E08081982FEC8191
:1027D000FD818181809589238A83E7E3F0E09A81F6
:1027E0008981892B808321C0E4E3F0E08081982FE8
:1027F000EC81FD818181809589238A83E4E3F0E087
:102800009A818981892B808310C0E1E3F0E0808187
:10281000982FEC81FD818181809589238A83E1E372
:10282000F0E09A818981892B80838B8127960FB66E
:10283000F894DEBF0FBECDBFCF91DF910895DF9337
:10284000CF93CDB7DEB727970FB6F894DEBF0FBE94
:10285000CDBF9B838A837D836C831982EA81FB8150
:102860008081843018F081E089833CC0EA81FB815B
:102870008081282F30E03F832E838E819F8181309D
:102880009105E1F02E813F81223031052CF48E81BB
:102890009F81009761F026C02E813F812230310553
:1028A000A1F08E819F8183309105B1F01BC0E9E3D7
:1028B000F0E08081EC81FD81808314C0E6E3F0E0EC
:1028C0008081EC81FD8180830DC0E3E3F0E08081B5
:1028D000EC81FD81808306C0E0E3F0E08081EC8143
:1028E000FD818083898127960FB6F894DEBF0FBEE5
:1028F000CDBFCF91DF910895DF93CF93CDB7DEB7F2
:1029000027970FB6F894DEBF0FBECDBF9B838A8397
:102910007D836C831982EA81FB818081843018F089
:1029200081E089837AC0EA81FB818081282F30E0B1
:102930003F832E834E815F814130510569F18E8145
:102940009F818230910534F42E813F81211531051C
:1029500069F063C04E815F814230510599F18E81EB
:102960009F818330910509F443C057C0E9E3F0E04B
:102970008081282F30E0EA81FB818181882F90E0DF
:10298000A90102C0559547958A95E2F7CA01817061
:10299000EC81FD81808341C0E6E3F0E08081282F57
:1029A00030E0EA81FB818181882F90E0A90102C09B
:1029B000559547958A95E2F7CA018170EC81FD81B2
:1029C00080832BC0E3E3F0E08081282F30E0EA81B0
:1029D000FB818181882F90E0A90102C05595479520
:1029E0008A95E2F7CA018170EC81FD81808315C070
:1029F000E0E3F0E08081282F30E0EA81FB818181F3
:102A0000882F90E0A90102C0559547958A95E2F775
:102A1000CA018170EC81FD818083898127960FB680
:102A2000F894DEBF0FBECDBFCF91DF910895DF9345
:102A3000CF9300D000D000D0CDB7DEB79B838A8380
:102A40006C831982EA81FB818081843018F081E0F7
:102A5000898334C0EA81FB818081282F30E03E8366
:102A60002D838D819E8181309105D1F02D813E8114
:102A7000223031052CF48D819E81009761F01EC0BB
:102A80002D813E812230310581F08D819E81833000
:102A9000910581F013C0EBE3F0E08C8180830EC0E0
:102AA000E8E3F0E08C81808309C0E5E3F0E08C810D
:102AB000808304C0E2E3F0E08C81808389812696E4
:102AC0000FB6F894DEBF0FBECDBFCF91DF91089552
:102AD000DF93CF93CDB7DEB728970FB6F894DEBF5C
:102AE0000FBECDBF9D838C836E831B82EC81FD81E5
:102AF0008081843018F081E08B836AC0EC81FD8195
:102B000091818E8189238983EC81FD818081282FA9
:102B100030E038872F838F8198858130910531F19E
:102B20002F813885223031052CF48F8198850097CC
:102B300061F04EC02F8138852230310541F18F81FF
:102B4000988583309105A1F143C0EBE3F0E08081EB
:102B5000982FEC81FD818181809589238A83EBE325
:102B6000F0E09A818981892B808332C0E8E3F0E02C
:102B70008081982FEC81FD818181809589238A83D2
:102B8000E8E3F0E09A818981892B808321C0E5E325
:102B9000F0E08081982FEC81FD81818180958923EF
:102BA0008A83E5E3F0E09A818981892B808310C0D4
:102BB000E2E3F0E08081982FEC81FD8181818095B6
:102BC00089238A83E2E3F0E09A818981892B8083DB
:102BD0008B8128960FB6F894DEBF0FBECDBFCF9184
:102BE000DF910895DF93CF93CDB7DEB72A970FB665
:102BF000F894DEBF0FBECDBF9E838D836F83488761
:102C00001C82ED81FE818081843018F081E08C830C
:102C1000F0C01A82198215C08F81882F90E0098038
:102C200002C0959587950A94E2F781709070882389
:102C300019F089818B830AC089819A8101969A83D0
:102C4000898389819A818830910534F3ED81FE81F1
:102C50008081282F30E03A87298789859A858130BD
:102C6000910509F443C029853A85223031052CF4B9
:102C700089859A85009771F0BCC029853A852230F4
:102C8000310509F45FC089859A858330910509F47F
:102C900085C0AFC088858130A1F4ABE3B0E0EBE341
:102CA000F0E08081482F8B81282F30E081E090E098
:102CB000022E02C0880F991F0A94E2F7842B8C938E
:102CC00098C0ABE3B0E0EBE3F0E08081482F8B816C
:102CD000282F30E081E090E0022E02C0880F991F7B
:102CE0000A94E2F7809584238C9383C08885813091
:102CF000A1F4A8E3B0E0E8E3F0E08081482F8B8105
:102D0000282F30E081E090E0022E02C0880F991F4A
:102D10000A94E2F7842B8C936CC0A8E3B0E0E8E35C
:102D2000F0E08081482F8B81282F30E081E090E017
:102D3000022E02C0880F991F0A94E2F7809584231F
:102D40008C9357C088858130A1F4A5E3B0E0E5E31A
:102D5000F0E08081482F8B81282F30E081E090E0E7
:102D6000022E02C0880F991F0A94E2F7842B8C93DD
:102D700040C0A5E3B0E0E5E3F0E08081482F8B811F
:102D8000282F30E081E090E0022E02C0880F991FCA
:102D90000A94E2F7809584238C932BC08885813038
:102DA000A1F4A2E3B0E0E2E3F0E08081482F8B8160
:102DB000282F30E081E090E0022E02C0880F991F9A
:102DC0000A94E2F7842B8C9314C0A2E3B0E0E2E310
:102DD000F0E08081482F8B81282F30E081E090E067
:102DE000022E02C0880F991F0A94E2F7809584236F
:102DF0008C938C812A960FB6F894DEBF0FBECDBFA0
:102E0000CF91DF910895DF93CF93CDB7DEB72B97A6
:102E10000FB6F894DEBF0FBECDBF9E838D836F8348
:102E2000598748871C82ED81FE818081843018F0AB
:102E300081E08C838FC01A82198215C08F81882F00
:102E400090E0098002C0959587950A94E2F7817019
:102E50009070882319F089818B830AC089819A81B7
:102E600001969A83898389819A818830910534F308
:102E7000ED81FE818081282F30E03B872A874A85BB
:102E80005B854130510559F18A859B8582309105DA
:102E900034F42A853B852115310569F05BC04A85EC
:102EA0005B854230510579F18A859B858330910598
:102EB00009F43DC04FC0E9E3F0E08081282F30E005
:102EC0008B81882F90E0A90102C0559547958A957E
:102ED000E2F7CA018170E885F98580833BC0E6E3AB
:102EE000F0E08081282F30E08B81882F90E0A901CD
:102EF00002C0559547958A95E2F7CA018170E88529
:102F0000F985808327C0E3E3F0E08081282F30E05B
:102F10008B81882F90E0A90102C0559547958A952D
:102F2000E2F7CA018170E885F985808313C0E0E388
:102F3000F0E08081282F30E08B81882F90E0A9017C
:102F400002C0559547958A95E2F7CA018170E885D8
:102F5000F98580838C812B960FB6F894DEBF0FBE67
:102F6000CDBFCF91DF910895DF93CF93CDB7DEB77B
:102F700029970FB6F894DEBF0FBECDBF9E838D8319
:102F80006F831C82ED81FE818081843018F081E0A6
:102F90008C838DC01A82198215C08F81882F90E092
:102FA000098002C0959587950A94E2F78170907028
:102FB000882319F089818B830AC089819A810196BF
:102FC0009A83898389819A818830910534F3ED81D0
:102FD000FE818081282F30E0398728878885998570
:102FE0008130910549F128853985223031052CF44D
:102FF00088859985009761F05AC0288539852230E7
:10300000310571F18885998583309105E9F14FC0CB
:10301000ABE3B0E0EBE3F0E08081482F8B81282F19
:1030200030E081E090E0022E02C0880F991F0A94E0
:10303000E2F784278C933BC0A8E3B0E0E8E3F0E03C
:103040008081482F8B81282F30E081E090E0022E94
:1030500002C0880F991F0A94E2F784278C9327C037
:10306000A8E3B0E0E5E3F0E08081482F8B81282FD2
:1030700030E081E090E0022E02C0880F991F0A9490
:10308000E2F784278C9313C0A8E3B0E0E2E3F0E01A
:103090008081482F8B81282F30E081E090E0022E44
:1030A00002C0880F991F0A94E2F784278C938C81C1
:1030B00029960FB6F894DEBF0FBECDBFCF91DF913A
:1030C0000895DF93CF9300D00F92CDB7DEB781E0A4
:1030D0008983E7E2F0E0108280919301282F30E0AD
:1030E0003B832A838A819B8181309105C1F02A81AB
:1030F0003B812230310511F18A819B81009761F576
:10310000A7E2B0E0E7E2F0E080818F778C93A7E25E
:10311000B0E0E7E2F0E080818F7B8C931DC0A7E2F6
:10312000B0E0E7E2F0E080818F778C93A7E2B0E037
:10313000E7E2F0E0808180648C930EC0A7E2B0E00B
:10314000E7E2F0E0808180688C93A7E2B0E0E7E2FC
:10315000F0E0808180648C93A6E2B0E0E6E2F0E0EB
:103160008081887F8C9380919401877080939401F3
:10317000A6E2B0E0E6E2F0E0908180919401892B34
:103180008C93A6E2B0E0E6E2F0E0808180688C9368
:10319000A7E2B0E0E7E2F0E080818F7D8C93898147
:1031A0000F900F900F90CF91DF910895DF93CF9301
:1031B0000F92CDB7DEB78983A7E2B0E0E7E2F0E097
:1031C0008081807E8C93A7E2B0E0E7E2F0E090811E
:1031D0008981892B8C93A6E2B0E0E6E2F0E0808161
:1031E00080648C93E6E2F0E08081829586958695F6
:1031F0008370882F90E081709070882399F7E4E2C3
:10320000F0E0808191810F90CF91DF910895DF935D
:10321000CF93CDB7DEB72F970FB6F894DEBF0FBEB2
:10322000CDBF9F878E871B82EE85FF858081803290
:10323000A0F4EE85FF8581818D3078F4EE85FF85E1
:1032400086818D3350F4EE85FF8585818D3328F49A
:10325000EE85FF8584818D3018F082E08B83DBC0A2
:1032600080ED0E94800E80E00E944A0FEE85FF856F
:1032700086819AE0692F0E94BB35882F90E09C01DF
:1032800022953295307F3227207F3227EE85FF85C9
:1032900086819AE0692F0E94BB35892F882F90E0A4
:1032A000822B932B9A83898389810E944A0FEE8512
:1032B000FF8585819AE0692F0E94BB35882F90E0B9
:1032C0009C0122953295307F3227207F3227EE8570
:1032D000FF8585819AE0692F0E94BB35892F882F51
:1032E00090E0822B932B9D878C878C850E944A0FC0
:1032F000EE85FF8584819AE0692F0E94BB35882F77
:1033000090E09C0122953295307F3227207F322732
:10331000EE85FF8584819AE0692F0E94BB35892F55
:10332000882F90E0822B932B9B878A878A850E9427
:103330004A0F0E94020F80ED0E94800E83E00E94DF
:103340004A0FEE85FF8583810E944A0FEE85FF8537
:1033500080819AE0692F0E94BB35882F90E09C0104
:1033600022953295307F3227207F3227EE85FF85E8
:1033700080819AE0692F0E94BB35892F882F90E0C9
:10338000822B932B9987888788850E944A0FEE8528
:10339000FF8581819AE0692F0E94BB35882F90E0DC
:1033A0009C0122953295307F3227207F3227EE858F
:1033B000FF8581819AE0692F0E94BB35892F882F74
:1033C00090E0822B932B9F838E838E810E944A0FE5
:1033D000EE85FF8582819AE0692F0E94BB35882F98
:1033E00090E09C0122953295307F3227207F322752
:1033F000EE85FF8582819AE0692F0E94BB35892F77
:10340000882F90E0822B932B9D838C838C810E944C
:103410004A0F0E94020F8B812F960FB6F894DEBFE1
:103420000FBECDBFCF91DF910895DF93CF9300D032
:103430000F92CDB7DEB79B838A83198280ED0E94FD
:10344000800E80E00E944A0F81ED0E94C10E0E9412
:10345000770FEA81FB8186830E94770FEA81FB81E7
:1034600085830E948C0FEA81FB8184830E94020F76
:1034700089810F900F900F90CF91DF910895DF9386
:10348000CF9300D00F92CDB7DEB79B838A8319828A
:10349000EA81FB818081803228F4EA81FB8181818D
:1034A0008D3018F082E089831FC080ED0E94800E6D
:1034B00083E00E944A0F81ED0E94C10E0E94770FA7
:1034C000EA81FB8183830E94770FEA81FB818083FD
:1034D0000E94770FEA81FB8181830E948C0FEA8131
:1034E000FB8182830E94020F89810F900F900F90C1
:1034F000CF91DF9108950F931F93DF93CF93CDB7B3
:10350000DEB7C657D0400FB6F894DEBF0FBECDBFB2
:103510001092F901FE01EB58FF4F11821082FE015B
:10352000ED58FF4F118210820E947A31FE01E3595B
:10353000FF4F80E090E0A8E4B2E480839183A2830F
:10354000B3838E0107591F4FFE01E359FF4F60817E
:1035500071818281938120E030E04AE755E40E9446
:103560001F02DC01CB01F80180839183A283B38326
:10357000FE01E759FF4F608171818281938120E0D4
:1035800030E040E85FE30E942504882344F4FE0114
:10359000E959FF4F81E090E09183808364C0FE0190
:1035A000E759FF4F608171818281938120E03FEF75
:1035B0004FE757E40E94C50318160CF043C0FE0104
:1035C000E359FF4F608171818281938120E030E077
:1035D00040E251E40E941F02DC01CB018E01095937
:1035E0001F4FBC01CD010E944900DC01CB01F80155
:1035F000918380831FC0FE01EB59FF4F80E991E06A
:1036000091838083FE01EB59FF4F80819181019767
:10361000F1F7FE01EB59FF4F91838083DE01A95939
:10362000BF4FFE01E959FF4F8081918101971196AB
:103630009C938E93FE01E959FF4F80819181009701
:10364000D1F627C08E0109591F4FFE01E759FF4FE0
:1036500060817181828193810E944900DC01CB01EC
:10366000F80191838083DE01AD59BF4FFE01E95916
:10367000FF4F808191818D939C93FE01ED59FF4F07
:10368000808191810197F1F7FE01ED59FF4F918300
:10369000808380E690E061E041E00E940A32FE0112
:1036A000E15AFF4F80E090E4ACE9B5E48083918378
:1036B000A283B3838E01055A1F4FFE01E15AFF4FCB
:1036C000608171818281938120E030E04AE755E496
:1036D0000E941F02DC01CB01F80180839183A28349
:1036E000B383FE01E55AFF4F60817181828193812E
:1036F00020E030E040E85FE30E942504882344F4A2
:10370000FE01E75AFF4F81E090E09183808364C01F
:10371000FE01E55AFF4F608171818281938120E033
:103720003FEF4FE757E40E94C50318160CF043C063
:10373000FE01E15AFF4F608171818281938120E017
:1037400030E040E251E40E941F02DC01CB018E0117
:10375000075A1F4FBC01CD010E944900DC01CB017B
:10376000F801918380831FC0FE01E95AFF4F80E971
:1037700091E091838083FE01E95AFF4F808191811E
:103780000197F1F7FE01E95AFF4F91838083DE0133
:10379000A75ABF4FFE01E75AFF4F808191810197E1
:1037A00011969C938E93FE01E75AFF4F8081918181
:1037B0000097D1F628C08E01075A1F4FFE01E55A27
:1037C000FF4F60817181828193810E944900DC01F9
:1037D000CB01F80191838083DE01AB5ABF4FFE011C
:1037E000E75AFF4F8081918111969C938E93FE0141
:1037F000EB5AFF4F808191810197F1F7FE01EB5A5F
:10380000FF4F91838083FE01EB58FF4F118210829E
:103810002EC063E370E080E090E00E9479320E9465
:10382000C9078093F401FE01EB58FF4F808191811D
:103830002091F401FC01E051FE4F2083FE01EB5882
:10384000FF4F8081982F9F5F82E0692F0E942A326C
:103850008AE20E94182CDE01AB58BF4FFE01EB58E4
:10386000FF4F80819181019611969C938E93FE016A
:10387000EB58FF4F808191818430910554F2FE0115
:10388000EF5AFF4F80E090E0A8E4B2E48083918398
:10389000A283B3838E01035B1F4FFE01EF5AFF4FDC
:1038A000608171818281938120E030E04AE755E4B4
:1038B0000E941F02DC01CB01F80180839183A28367
:1038C000B383FE01E35BFF4F60817181828193814D
:1038D00020E030E040E85FE30E942504882344F4C0
:1038E000FE01E55BFF4F81E090E09183808364C03F
:1038F000FE01E35BFF4F608171818281938120E053
:103900003FEF4FE757E40E94C50318160CF043C081
:10391000FE01EF5AFF4F608171818281938120E027
:1039200030E040E251E40E941F02DC01CB018E0135
:10393000055B1F4FBC01CD010E944900DC01CB019A
:10394000F801918380831FC0FE01E75BFF4F80E990
:1039500091E091838083FE01E75BFF4F808191813D
:103960000197F1F7FE01E75BFF4F91838083DE0152
:10397000A55BBF4FFE01E55BFF4F80819181019701
:1039800011969C938E93FE01E55BFF4F80819181A0
:103990000097D1F627C08E01055B1F4FFE01E35B48
:1039A000FF4F60817181828193810E944900DC0117
:1039B000CB01F80191838083DE01A95BBF4FFE013B
:1039C000E55BFF4F808191818D939C93FE01E95BC4
:1039D000FF4F808191810197F1F7FE01E95BFF4F75
:1039E00091838083FE01ED58FF4F118210820E9467
:1039F0007A318EE690E061E041E00E940A32FE01F9
:103A0000ED5BFF4F80E090E4ACE9B5E48083918307
:103A1000A283B3838E01015C1F4FFE01ED5BFF4F5C
:103A2000608171818281938120E030E04AE755E432
:103A30000E941F02DC01CB01F80180839183A283E5
:103A4000B383FE01FF96608171818281938120E0C2
:103A500030E040E85FE30E94250488232CF481E0F5
:103A600090E09EAF8DAF46C0FE01FF9660817181F0
:103A70008281938120E03FEF4FE757E40E94C50326
:103A8000181664F5FE01ED5BFF4F60817181828144
:103A9000938120E030E040E251E40E941F02DC010B
:103AA000CB01BC01CD010E944900DC01CB019EAFDE
:103AB0008DAF0FC080E991E09CAF8BAF8BAD9CAD1B
:103AC0000197F1F79CAF8BAF8DAD9EAD01979EAF87
:103AD0008DAF8DAD9EAD009769F723C1FE01FF96B6
:103AE00060817181828193810E944900DC01CB0158
:103AF0009EAF8DAF8DAD9EAD9AAF89AF89AD9AADBA
:103B00000197F1F79AAF89AF0CC10E94C907809362
:103B1000F40180E090E0A8ECB2E48DAB9EABAFABDB
:103B2000B8AF6DA97EA98FA998AD20E030E04AE733
:103B300055E40E941F02DC01CB0189AB9AABABAB11
:103B4000BCAB69A97AA98BA99CA920E030E040E828
:103B50005FE30E94250488232CF481E090E098AB79
:103B60008FA73FC069A97AA98BA99CA920E03FEF44
:103B70004FE757E40E94C50318164CF56DA97EA9BE
:103B80008FA998AD20E030E040E251E40E941F028E
:103B9000DC01CB01BC01CD010E944900DC01CB015D
:103BA00098AB8FA70FC080E991E09EA78DA78DA548
:103BB0009EA50197F1F79EA78DA78FA598A90197BC
:103BC00098AB8FA78FA598A9009769F714C069A92A
:103BD0007AA98BA99CA90E944900DC01CB0198AB72
:103BE0008FA78FA598A99CA78BA78BA59CA50197AC
:103BF000F1F79CA78BA7FE01ED58FF4F80819181C3
:103C00002091F401FC01EA50FE4F2083FE01EB58A5
:103C1000FF4F8081982F9F5F82E0692F0E942A3298
:103C20008AE20E94182C80E090E0A8E4B2E48FA31E
:103C300098A7A9A7BAA76FA178A589A59AA520E0FA
:103C400030E04AE755E40E941F02DC01CB018BA360
:103C50009CA3ADA3BEA36BA17CA18DA19EA120E0DE
:103C600030E040E85FE30E94250488232CF481E0E3
:103C700090E09AA389A33FC06BA17CA18DA19EA1D6
:103C800020E03FEF4FE757E40E94C50318164CF5BC
:103C90006FA178A589A59AA520E030E040E251E423
:103CA0000E941F02DC01CB01BC01CD010E94490032
:103CB000DC01CB019AA389A30FC080E991E098A30E
:103CC0008F8F8F8D98A10197F1F798A38F8F89A17E
:103CD0009AA101979AA389A389A19AA1009769F74C
:103CE00014C06BA17CA18DA19EA10E944900DC01A2
:103CF000CB019AA389A389A19AA19E8F8D8F8D8DC7
:103D00009E8D0197F1F79E8F8D8FDE01AD58BF4FCD
:103D1000FE01ED58FF4F80819181019611969C9391
:103D20008E93FE01ED58FF4F808191818430910583
:103D30000CF4EBCE80E090E0AAEFB3E4898F9A8F89
:103D4000AB8FBC8F698D7A8D8B8D9C8D20E030E0A0
:103D50004AE755E40E941F02DC01CB018D8B9E8B4C
:103D6000AF8BB88F6D897E898F89988D20E030E088
:103D700040E85FE30E94250488232CF481E090E072
:103D80009C8B8B8B3FC06D897E898F89988D20E0BD
:103D90003FEF4FE757E40E94C50318164CF5698DB5
:103DA0007A8D8B8D9C8D20E030E040E251E40E94C2
:103DB0001F02DC01CB01BC01CD010E944900DC01E6
:103DC000CB019C8B8B8B0FC080E991E09A8B898B08
:103DD00089899A890197F1F79A8B898B8B899C89BC
:103DE00001979C8B8B8B8B899C89009769F714C0FA
:103DF0006D897E898F89988D0E944900DC01CB01F5
:103E00009C8B8B8B8B899C89988B8F878F859889CE
:103E10000197F1F7988B8F87FE01EF58FF4F1182C2
:103E2000108223C0FE01EF58FF4F80819181FC0179
:103E3000E051FE4F2081FE01EF58FF4F80819181BC
:103E4000FC01EA50FE4F8081281719F081E0809331
:103E5000F901DE01AF58BF4FFE01EF58FF4F8081DF
:103E60009181019611969C938E93FE01EF58FF4F1E
:103E70008081918184309105ACF28091F901882391
:103E800009F0AEC08091F0018093F8018091F101BA
:103E90008093F3018091F2018093F7018091F30107
:103EA0008093F1018091F801282F30E081E193E0C7
:103EB000B9010E9409128091F301282F30E081E2BC
:103EC00093E0B9010E9409128091F701282F30E098
:103ED00081E393E0B9010E9409128091F101282F3A
:103EE00030E081E493E0B9010E9409120E947A3126
:103EF00081E890E061E041E00E940A3280E090E0D9
:103F0000AAEFB3E48B879C87AD87BE876B857C85E2
:103F10008D859E8520E030E04AE755E40E941F022F
:103F2000DC01CB018F839887A987BA876F81788559
:103F300089859A8520E030E040E85FE30E9425040F
:103F400088232CF481E090E09E838D833FC06F81B5
:103F5000788589859A8520E03FEF4FE757E40E94F6
:103F6000C50318164CF56B857C858D859E8520E0F4
:103F700030E040E251E40E941F02DC01CB01BC01B1
:103F8000CD010E944900DC01CB019E838D830FC0CF
:103F900080E991E09C838B838B819C810197F1F771
:103FA0009C838B838D819E8101979E838D838D81E0
:103FB0009E81009769F714C06F81788589859A85FD
:103FC0000E944900DC01CB019E838D838D819E81FF
:103FD0009A83898389819A810197F1F79A838983EA
:103FE0008091F901CA58DF4F0FB6F894DEBF0FBEBB
:103FF000CDBFCF91DF911F910F910895DF93CF93A4
:10400000CDB7DEB7AE970FB6F894DEBF0FBECDBF0B
:104010001EA61DA60E947A3180E090E0A8E4B2E4DA
:104020008FA398A7A9A7BAA76FA178A589A59AA5D4
:1040300020E030E04AE755E40E941F02DC01CB019A
:104040008BA39CA3ADA3BEA36BA17CA18DA19EA1BC
:1040500020E030E040E85FE30E94250488232CF450
:1040600081E090E09AA389A33FC06BA17CA18DA1C0
:104070009EA120E03FEF4FE757E40E94C5031816CA
:104080004CF56FA178A589A59AA520E030E040E223
:1040900051E40E941F02DC01CB01BC01CD010E9452
:1040A0004900DC01CB019AA389A30FC080E991E00C
:1040B00098A38F8F8F8D98A10197F1F798A38F8F79
:1040C00089A19AA101979AA389A389A19AA100978E
:1040D00069F714C06BA17CA18DA19EA10E9449002B
:1040E000DC01CB019AA389A389A19AA19E8F8D8F10
:1040F0008D8D9E8D0197F1F79E8F8D8F80E690E0DC
:1041000061E041E00E940A3280E090E0A8E4B2E47D
:10411000898F9A8FAB8FBC8F698D7A8D8B8D9C8D9B
:1041200020E030E04AE755E40E941F02DC01CB01A9
:104130008D8B9E8BAF8BB88F6D897E898F89988D83
:1041400020E030E040E85FE30E94250488232CF45F
:1041500081E090E09C8B8B8B3FC06D897E898F893D
:10416000988D20E03FEF4FE757E40E94C5031816F3
:104170004CF5698D7A8D8B8D9C8D20E030E040E28E
:1041800051E40E941F02DC01CB01BC01CD010E9461
:104190004900DC01CB019C8B8B8B0FC080E991E047
:1041A0009A8B898B89899A890197F1F79A8B898BE8
:1041B0008B899C8901979C8B8B8B8B899C89009721
:1041C00069F714C06D897E898F89988D0E94490096
:1041D000DC01CB019C8B8B8B8B899C89988B8F8787
:1041E0008F8598890197F1F7988B8F871CA61BA65E
:1041F00086C00E94C9078093F4018BA59CA52091DD
:10420000F401FC01E051FE4F20838AE20E94182C49
:104210008BA59CA501969CA78BA780E090E0A8ECBD
:10422000B2E48B879C87AD87BE876B857C858D8547
:104230009E8520E030E04AE755E40E941F02DC0141
:10424000CB018F839887A987BA876F817885898505
:104250009A8520E030E040E85FE30E94250488234F
:104260002CF481E090E09E838D833FC06F81788540
:1042700089859A8520E03FEF4FE757E40E94C50308
:1042800018164CF56B857C858D859E8520E030E089
:1042900040E251E40E941F02DC01CB01BC01CD01D0
:1042A0000E944900DC01CB019E838D830FC080E911
:1042B00091E09C838B838B819C810197F1F79C8398
:1042C0008B838D819E8101979E838D838D819E81BD
:1042D000009769F714C06F81788589859A850E9457
:1042E0004900DC01CB019E838D838D819E819A8361
:1042F000898389819A810197F1F79A8389838BA5B4
:104300009CA5843091050CF474CF28EF31E081E155
:1043100093E0B9010E944A1223EF31E081E193E07A
:10432000B9010E944A1227EF31E081E193E0B9011F
:104330000E944A1221EF31E081E193E0B9010E942D
:104340004A129091F0018091F8019817A9F4909188
:10435000F1018091F301981779F49091F201809125
:10436000F701981749F49091F1018091F1019817A4
:1043700019F481E08093F5018091F501AE960FB6B6
:10438000F894DEBF0FBECDBFCF91DF910895DF93CC
:10439000CF9300D000D000D0CDB7DEB78D836E8331
:1043A0008D818A838E818B838FEF8C8381E08983DB
:1043B000CE0102960E94AA128983898126960FB6A1
:1043C000F894DEBF0FBECDBFCF91DF910895DF938C
:1043D000CF9300D000D000D0CDB7DEB78D836E83F1
:1043E0008D818A838E818B831C8281E08983CE01BB
:1043F00002966FEF0E9468158983898126960FB611
:10440000F894DEBF0FBECDBFCF91DF910895DF934B
:10441000CF9300D000D000D0CDB7DEB78D836E83B0
:104420008D818A838E818B831C8281E08983CE017A
:10443000029660E00E9468158983898126960FB6EE
:10444000F894DEBF0FBECDBFCF91DF910895DF930B
:10445000CF93CDB7DEB7A2970FB6F894DEBF0FBEED
:10446000CDBF89A36AA389A18E8F8AA18F8F18A23D
:1044700081E08D8FCE014E966FEF0E9468158D8F73
:104480008091950190919601AA2797FDA095BA2F4A
:10449000BC01CD010E945504DC01CB01898F9A8FAC
:1044A000AB8FBC8F698D7A8D8B8D9C8D20E030E039
:1044B0004AE755E40E941F02DC01CB018D8B9E8BE5
:1044C000AF8BB88F6D897E898F89988D20E030E021
:1044D00040E85FE30E94250488232CF481E090E00B
:1044E0009C8B8B8B3FC06D897E898F89988D20E056
:1044F0003FEF4FE757E40E94C50318164CF5698D4E
:104500007A8D8B8D9C8D20E030E040E251E40E945A
:104510001F02DC01CB01BC01CD010E944900DC017E
:10452000CB019C8B8B8B0FC080E991E09A8B898BA0
:1045300089899A890197F1F79A8B898B8B899C8954
:1045400001979C8B8B8B8B899C89009769F714C092
:104550006D897E898F89988D0E944900DC01CB018D
:104560009C8B8B8B8B899C89988B8F878F85988967
:104570000197F1F7988B8F87CE014E9660E00E94ED
:1045800068158D8F8091950190919601AA2797FDCE
:10459000A095BA2FBC01CD010E945504DC01CB01CE
:1045A0008B879C87AD87BE876B857C858D859E8537
:1045B00020E030E04AE755E40E941F02DC01CB0115
:1045C0008F839887A987BA876F81788589859A852F
:1045D00020E030E040E85FE30E94250488232CF4CB
:1045E00081E090E09E838D833FC06F8178858985CF
:1045F0009A8520E03FEF4FE757E40E94C503181665
:104600004CF56B857C858D859E8520E030E040E211
:1046100051E40E941F02DC01CB01BC01CD010E94CC
:104620004900DC01CB019E838D830FC080E991E0BE
:104630009C838B838B819C810197F1F79C838B8377
:104640008D819E8101979E838D838D819E810097B0
:1046500069F714C06F81788589859A850E94490021
:10466000DC01CB019E838D838D819E819A8389831A
:1046700089819A810197F1F79A8389838D8DA2961A
:104680000FB6F894DEBF0FBECDBFCF91DF91089576
:10469000DF93CF93CDB7DEB7C155D0400FB6F894B6
:1046A000DEBF0FBECDBF81E089AFCE01CA96259691
:1046B0009FAF8EAF2597EDEAF1E02796FFAFEEAF03
:1046C0002797F3E02896FFAF28972796EEADFFAD2A
:1046D0002797008027968EAD9FAD27970196279646
:1046E0009FAF8EAF27972596EEADFFAD2597008241
:1046F00025968EAD9FAD2597019625969FAF8EAFDF
:10470000259728969FAD2897915028969FAF289778
:104710002896EFAD2897EE23C1F6CE01CA960E94E7
:10472000AA1289AFCE01CD962A969FAF8EAF2A9757
:10473000EAEAF1E02C96FFAFEEAF2C97F3E02D966E
:10474000FFAF2D972C96EEADFFAD2C9700802C96E9
:104750008EAD9FAD2C9701962C969FAF8EAF2C9768
:104760002A96EEADFFAD2A9700822A968EAD9FADB8
:104770002A9701962A969FAF8EAF2A972D969FADC6
:104780002D9791502D969FAF2D972D96EFAD2D978C
:10479000EE23C1F6CE01CD960E94AA1289AFCE01BA
:1047A000805C9F4F2F969FAF8EAF2F97E7EAF1E087
:1047B0006196FFAFEEAF6197F3E06296FFAF62974D
:1047C0006196EEADFFAD6197008061968EAD9FADB5
:1047D0006197019661969FAF8EAF61972F96EEAD70
:1047E000FFAD2F9700822F968EAD9FAD2F9701962C
:1047F0002F969FAF8EAF2F9762969FAD6297915085
:1048000062969FAF62976296EFAD6297EE23C1F614
:10481000CE01805C9F4F0E94AA1289AF80E090E099
:10482000ACE0B2E48DAB9EABAFABB8AF6DA97EA9E7
:104830008FA998AD20E030E04AE755E40E941F02BE
:10484000DC01CB0189AB9AABABABBCAB69A97AA954
:104850008BA99CA920E030E040E85FE30E9425049A
:1048600088232CF481E090E098AB8FA73FC069A922
:104870007AA98BA99CA920E03FEF4FE757E40E945B
:10488000C50318164CF56DA97EA98FA998AD20E037
:1048900030E040E251E40E941F02DC01CB01BC0188
:1048A000CD010E944900DC01CB0198AB8FA70FC05E
:1048B00080E991E09EA78DA78DA59EA50197F1F7B0
:1048C0009EA78DA78FA598A9019798AB8FA78FA5B5
:1048D00098A9009769F714C069A97AA98BA99CA91E
:1048E0000E944900DC01CB0198AB8FA78FA598A946
:1048F0009CA78BA78BA59CA50197F1F79CA78BA7DD
:1049000082E00E94F02588E20E94F02580E090E09D
:10491000A0E2B2E48FA398A7A9A7BAA76FA178A530
:1049200089A59AA520E030E04AE755E40E941F02DD
:10493000DC01CB018BA39CA3ADA3BEA36BA17CA187
:104940008DA19EA120E030E040E85FE30E942504B5
:1049500088232CF481E090E09AA389A33FC06BA147
:104960007CA18DA19EA120E03FEF4FE757E40E947C
:10497000C50318164CF56FA178A589A59AA520E066
:1049800030E040E251E40E941F02DC01CB01BC0197
:10499000CD010E944900DC01CB019AA389A30FC07D
:1049A00080E991E098A38F8F8F8D98A10197F1F7FF
:1049B00098A38F8F89A19AA101979AA389A389A10E
:1049C0009AA1009769F714C06BA17CA18DA19EA14B
:1049D0000E944900DC01CB019AA389A389A19AA175
:1049E0009E8F8D8F8D8D9E8D0197F1F79E8F8D8F70
:1049F0008EE00E94F02580E090E0A0E2B2E4898F92
:104A00009A8FAB8FBC8F698D7A8D8B8D9C8D20E0BA
:104A100030E04AE755E40E941F02DC01CB018D8B98
:104A20009E8BAF8BB88F6D897E898F89988D20E0A2
:104A300030E040E85FE30E94250488232CF481E005
:104A400090E09C8B8B8B3FC06D897E898F89988D80
:104A500020E03FEF4FE757E40E94C50318164CF5DE
:104A6000698D7A8D8B8D9C8D20E030E040E251E4A1
:104A70000E941F02DC01CB01BC01CD010E94490054
:104A8000DC01CB019C8B8B8B0FC080E991E09A8B72
:104A9000898B89899A890197F1F79A8B898B8B8900
:104AA0009C8901979C8B8B8B8B899C89009769F7DC
:104AB00014C06D897E898F89988D0E944900DC0120
:104AC000CB019C8B8B8B8B899C89988B8F878F8557
:104AD00098890197F1F7988B8F8781E00E94F025E4
:104AE00080E090E0A0E0B0E48B879C87AD87BE8734
:104AF0006B857C858D859E8520E030E04AE755E416
:104B00000E941F02DC01CB018F839887A987BA8797
:104B10006F81788589859A8520E030E040E85FE301
:104B20000E94250488232CF481E090E09E838D83ED
:104B30003FC06F81788589859A8520E03FEF4FE7F8
:104B400057E40E94C50318164CF56B857C858D854E
:104B50009E8520E030E040E251E40E941F02DC012B
:104B6000CB01BC01CD010E944900DC01CB019E8339
:104B70008D830FC080E991E09C838B838B819C8126
:104B80000197F1F79C838B838D819E8101979E8392
:104B90008D838D819E81009769F714C06F81788520
:104BA00089859A850E944900DC01CB019E838D8313
:104BB0008D819E819A83898389819A810197F1F7FA
:104BC0009A83898386E00E94F02589ADCF5ADF4F12
:104BD0000FB6F894DEBF0FBECDBFCF91DF91089521
:104BE0000F931F93DF93CF93CDB7DEB7CA58D04052
:104BF0000FB6F894DEBF0FBECDBFFE01E558FF4FE4
:104C00008083FE01EF58FF4F81E08083CE018E58F4
:104C10009F4FEE969FAF8EAFEE9786EB91E0C25816
:104C2000DF4F99838883CE57D04093E0C058DF4F41
:104C30009883C058D040C258DF4FE881F981CE57E1
:104C4000D0400080C258DF4F88819981CE57D04034
:104C50000196C258DF4F99838883CE57D040EE9695
:104C6000EEADFFADEE970082EE968EAD9FADEE9766
:104C70000196EE969FAF8EAFEE97C058DF4F9881AA
:104C8000C058D0409150C058DF4F9883C058D04092
:104C9000C058DF4FE881C058D040EE2361F6CE0106
:104CA0008E589F4F60E00E946815FE01EF58FF4F3D
:104CB0008083FE01E359FF4F80E090E0A0E8BFE36E
:104CC00080839183A283B3838E0107591F4FFE0116
:104CD000E359FF4F608171818281938120E030E050
:104CE0004AE755E40E941F02DC01CB01F8018083F2
:104CF0009183A283B383FE01E759FF4F60817181E5
:104D00008281938120E030E040E85FE30E94250447
:104D1000882344F4FE01E959FF4F81E090E091833C
:104D2000808364C0FE01E759FF4F608171818281F9
:104D3000938120E03FEF4FE757E40E94C503181628
:104D40000CF043C0FE01E359FF4F60817181828105
:104D5000938120E030E040E251E40E941F02DC0138
:104D6000CB018E0109591F4FBC01CD010E944900A2
:104D7000DC01CB01F801918380831FC0FE01EB5958
:104D8000FF4F80E991E091838083FE01EB59FF4F53
:104D9000808191810197F1F7FE01EB59FF4F9183DB
:104DA0008083DE01A959BF4FFE01E959FF4F808181
:104DB0009181019711969C938E93FE01E959FF4FC3
:104DC000808191810097D1F628C08E0109591F4F2B
:104DD000FE01E759FF4F60817181828193810E94BA
:104DE0004900DC01CB01F80191838083DE01AD59DC
:104DF000BF4FFE01E959FF4F8081918111969C932D
:104E00008E93FE01ED59FF4F808191810197F1F75B
:104E1000FE01ED59FF4F91838083CE018B589F4F48
:104E2000CF57DF4F99838883C158D04083EB91E0FF
:104E3000CD57DF4F99838883C358D04093E0CB5739
:104E4000DF4F9883C558D040CD57DF4FE881F981B7
:104E5000C358D0400080CD57DF4F88819981C35817
:104E6000D0400196CD57DF4F99838883C358D040F7
:104E7000CF57DF4FE881F981C158D0400082CF572A
:104E8000DF4F88819981C158D0400196CF57DF4FBD
:104E900099838883C158D040CB57DF4F9881C5583C
:104EA000D0409150CB57DF4F9883C558D040CB5757
:104EB000DF4FE881C558D040EE2331F6FE01E15ABC
:104EC000FF4F80E090E0A0E8BFE380839183A2835E
:104ED000B3838E01055A1F4FFE01E15AFF4F6081D7
:104EE00071818281938120E030E04AE755E40E949D
:104EF0001F02DC01CB01F80180839183A283B3837D
:104F0000FE01E55AFF4F608171818281938120E02B
:104F100030E040E85FE30E942504882344F4FE016A
:104F2000E75AFF4F81E090E09183808364C0FE01E7
:104F3000E55AFF4F608171818281938120E03FEFCC
:104F40004FE757E40E94C50318160CF043C0FE015A
:104F5000E15AFF4F608171818281938120E030E0CE
:104F600040E251E40E941F02DC01CB018E01075A8E
:104F70001F4FBC01CD010E944900DC01CB01F801AB
:104F8000918380831FC0FE01E95AFF4F80E991E0C1
:104F900091838083FE01E95AFF4F808191810197BF
:104FA000F1F7FE01E95AFF4F91838083DE01A75A92
:104FB000BF4FFE01E75AFF4F808191810197119603
:104FC0009C938E93FE01E75AFF4F80819181009759
:104FD000D1F628C08E01075A1F4FFE01E55AFF4F38
:104FE00060817181828193810E944900DC01CB0143
:104FF000F80191838083DE01AB5ABF4FFE01E75A6F
:10500000FF4F8081918111969C938E93FE01EB5A04
:10501000FF4F808191810197F1F7FE01EB5AFF4F1D
:1050200091838083CE0188589F4FCA57DF4F998361
:105030008883C658D04080EB91E0C857DF4F9983F2
:105040008883C858D04093E0C657DF4F9883CA582A
:10505000D040C857DF4FE881F981C858D040008060
:10506000C857DF4F88819981C858D0400196C857EA
:10507000DF4F99838883C858D040CA57DF4FE881F3
:10508000F981C658D0400082CA57DF4F8881998184
:10509000C658D0400196CA57DF4F99838883C658B7
:1050A000D040C657DF4F9881CA58D0409150C6575C
:1050B000DF4F9883CA58D040C657DF4FE881CA589F
:1050C000D040EE2331F6FE01E558FF4F80818595F3
:1050D000859585958595282F2170CE0188589F4FFD
:1050E00061E0422F0E94F215FE01E558FF4F8081DA
:1050F00085958595859585958595282F2170CE0177
:1051000088589F4F62E0422F0E94F215FE01E55839
:10511000FF4F808186FB880F880B80F9282F217034
:10512000CE0188589F4F64E0422F0E94F215FE0185
:10513000E558FF4F8081282F221F2227221FCE01F2
:1051400088589F4F60E1422F0E94F215FE01EF5AEE
:10515000FF4F80E090E0A0E8BFE380839183A283CB
:10516000B3838E01035B1F4FFE01EF5AFF4F608137
:1051700071818281938120E030E04AE755E40E940A
:105180001F02DC01CB01F80180839183A283B383EA
:10519000FE01E35BFF4F608171818281938120E09A
:1051A00030E040E85FE30E942504882344F4FE01D8
:1051B000E55BFF4F81E090E09183808364C0FE0156
:1051C000E35BFF4F608171818281938120E03FEF3B
:1051D0004FE757E40E94C50318160CF043C0FE01C8
:1051E000EF5AFF4F608171818281938120E030E02E
:1051F00040E251E40E941F02DC01CB018E01055BFD
:105200001F4FBC01CD010E944900DC01CB01F80118
:10521000918380831FC0FE01E75BFF4F80E991E02F
:1052200091838083FE01E75BFF4F8081918101972D
:10523000F1F7FE01E75BFF4F91838083DE01A55B01
:10524000BF4FFE01E55BFF4F808191810197119671
:105250009C938E93FE01E55BFF4F808191810097C7
:10526000D1F627C08E01055B1F4FFE01E35BFF4FA8
:1052700060817181828193810E944900DC01CB01B0
:10528000F80191838083DE01A95BBF4FFE01E55BDE
:10529000FF4F808191818D939C93FE01E95BFF4FCD
:1052A000808191810197F1F7FE01E95BFF4F9183C6
:1052B0008083CE018B589F4F6FEF0E946815FE01CF
:1052C000EF58FF4F8083FE01ED5BFF4F80E090E0E1
:1052D000A0E8BFE380839183A283B3838E01015C46
:1052E0001F4FFE01ED5BFF4F6081718182819381D1
:1052F00020E030E04AE755E40E941F02DC01CB01C8
:10530000F80180839183A283B383FE01FF966081BD
:1053100071818281938120E030E040E85FE30E9468
:10532000250488232CF481E090E09EAF8DAF46C029
:10533000FE01FF96608171818281938120E03FEFC1
:105340004FE757E40E94C503181664F5FE01ED5BB4
:10535000FF4F608171818281938120E030E040E2E3
:1053600051E40E941F02DC01CB01BC01CD010E946F
:105370004900DC01CB019EAF8DAF0FC080E991E009
:105380009CAF8BAF8BAD9CAD0197F1F79CAF8BAF12
:105390008DAD9EAD01979EAF8DAF8DAD9EAD00974B
:1053A00069F716C0FE01FF96608171818281938149
:1053B0000E944900DC01CB019EAF8DAF8DAD9EAD4B
:1053C0009AAF89AF89AD9AAD0197F1F79AAF89AFDE
:1053D000CE018B589F4F60E00E946815FE01EF5888
:1053E000FF4F808380E090E0A0E8BFE38DAB9EABF1
:1053F000AFABB8AF6DA97EA98FA998AD20E030E022
:105400004AE755E40E941F02DC01CB0189AB9AAB4D
:10541000ABABBCAB69A97AA98BA99CA920E030E011
:1054200040E85FE30E94250488232CF481E090E0AB
:1054300098AB8FA73FC069A97AA98BA99CA920E046
:105440003FEF4FE757E40E94C50318164CF56DA9CE
:105450007EA98FA998AD20E030E040E251E40E949F
:105460001F02DC01CB01BC01CD010E944900DC011F
:10547000CB0198AB8FA70FC080E991E09EA78DA7C5
:105480008DA59EA50197F1F79EA78DA78FA598A939
:10549000019798AB8FA78FA598A9009769F714C0BB
:1054A00069A97AA98BA99CA90E944900DC01CB01BA
:1054B00098AB8FA78FA598A99CA78BA78BA59CA518
:1054C0000197F1F79CA78BA7FE01E558FF4F80815C
:1054D000282F2170CE0188589F4F61E0422F0E94F3
:1054E000F215FE01E558FF4F80818595282F217028
:1054F000CE0188589F4F62E0422F0E94F215FE01B4
:10550000E558FF4F808185958595282F2170CE0124
:1055100088589F4F64E0422F0E94F215FE01E55823
:10552000FF4F8081859585958595282F2170CE0127
:1055300088589F4F60E1422F0E94F21580E090E072
:10554000A0E8BFE38FA398A7A9A7BAA76FA178A5E2
:1055500089A59AA520E030E04AE755E40E941F02A1
:10556000DC01CB018BA39CA3ADA3BEA36BA17CA14B
:105570008DA19EA120E030E040E85FE30E94250479
:1055800088232CF481E090E09AA389A33FC06BA10B
:105590007CA18DA19EA120E03FEF4FE757E40E9440
:1055A000C50318164CF56FA178A589A59AA520E02A
:1055B00030E040E251E40E941F02DC01CB01BC015B
:1055C000CD010E944900DC01CB019AA389A30FC041
:1055D00080E991E098A38F8F8F8D98A10197F1F7C3
:1055E00098A38F8F89A19AA101979AA389A389A1D2
:1055F0009AA1009769F714C06BA17CA18DA19EA10F
:105600000E944900DC01CB019AA389A389A19AA138
:105610009E8F8D8F8D8D9E8D0197F1F79E8F8D8F33
:10562000CE018B589F4F6FEF0E946815FE01EF5817
:10563000FF4F808380E090E0A0E8BFE3898F9A8FDE
:10564000AB8FBC8F698D7A8D8B8D9C8D20E030E087
:105650004AE755E40E941F02DC01CB018D8B9E8B33
:10566000AF8BB88F6D897E898F89988D20E030E06F
:1056700040E85FE30E94250488232CF481E090E059
:105680009C8B8B8B3FC06D897E898F89988D20E0A4
:105690003FEF4FE757E40E94C50318164CF5698D9C
:1056A0007A8D8B8D9C8D20E030E040E251E40E94A9
:1056B0001F02DC01CB01BC01CD010E944900DC01CD
:1056C000CB019C8B8B8B0FC080E991E09A8B898BEF
:1056D00089899A890197F1F79A8B898B8B899C89A3
:1056E00001979C8B8B8B8B899C89009769F714C0E1
:1056F0006D897E898F89988D0E944900DC01CB01DC
:105700009C8B8B8B8B899C89988B8F878F859889B5
:105710000197F1F7988B8F87CE018B589F4F60E0F0
:105720000E946815FE01EF58FF4F808380E090E0F3
:10573000A0E8BFE38B879C87AD87BE876B857C85A0
:105740008D859E8520E030E04AE755E40E941F02E7
:10575000DC01CB018F839887A987BA876F81788511
:1057600089859A8520E030E040E85FE30E942504C7
:1057700088232CF481E090E09E838D833FC06F816D
:10578000788589859A8520E03FEF4FE757E40E94AE
:10579000C50318164CF56B857C858D859E8520E0AC
:1057A00030E040E251E40E941F02DC01CB01BC0169
:1057B000CD010E944900DC01CB019E838D830FC087
:1057C00080E991E09C838B838B819C810197F1F729
:1057D0009C838B838D819E8101979E838D838D8198
:1057E0009E81009769F714C06F81788589859A85B5
:1057F0000E944900DC01CB019E838D838D819E81B7
:105800009A83898389819A810197F1F79A838983A1
:10581000FE01EF58FF4F8081C657DF4F0FB6F89457
:10582000DEBF0FBECDBFCF91DF911F910F910895C5
:105830000F931F93DF93CF93CDB7DEB7CC57D040F4
:105840000FB6F894DEBF0FBECDBFFE01E359FF4F88
:105850008083FE01ED59FF4F81E08083CE018C599A
:105860009F4FE0969FAF8EAFE0978FEB91E0E2966F
:105870009FAF8EAFE29793E0E3969FAFE397E296F8
:10588000EEADFFADE2970080E2968EAD9FADE29760
:105890000196E2969FAF8EAFE297E096EEADFFAD38
:1058A000E0970082E0968EAD9FADE0970196E0967E
:1058B0009FAF8EAFE097E3969FADE3979150E3964D
:1058C0009FAFE397E396EFADE397EE23C1F6CE01EA
:1058D0008C599F4F6FEF0E946815FE01ED59FF4FE5
:1058E0008083CE0189599F4FE5969FAF8EAFE59794
:1058F0008CEB91E0E7969FAF8EAFE79793E0E89649
:105900009FAFE897E796EEADFFADE7970080E7968B
:105910008EAD9FADE7970196E7969FAF8EAFE79765
:10592000E596EEADFFADE5970082E5968EAD9FADB5
:10593000E5970196E5969FAF8EAFE597E8969FAD08
:10594000E8979150E8969FAFE897E896EFADE89713
:10595000EE23C1F6FE01E15AFF4F80E090E0A0E89F
:10596000BFE380839183A283B3838E01055A1F4FC7
:10597000FE01E15AFF4F608171818281938120E0B5
:1059800030E04AE755E40E941F02DC01CB01F80138
:1059900080839183A283B383FE01E55AFF4F608128
:1059A00071818281938120E030E040E85FE30E94D2
:1059B0002504882344F4FE01E75AFF4F81E090E07C
:1059C0009183808364C0FE01E55AFF4F608171813D
:1059D0008281938120E03FEF4FE757E40E94C503A7
:1059E00018160CF043C0FE01E15AFF4F608171812F
:1059F0008281938120E030E040E251E40E941F0266
:105A0000DC01CB018E01075A1F4FBC01CD010E9462
:105A10004900DC01CB01F801918380831FC0FE01A6
:105A2000E95AFF4F80E991E091838083FE01E95AB2
:105A3000FF4F808191810197F1F7FE01E95AFF4FF5
:105A400091838083DE01A75ABF4FFE01E75AFF4FC3
:105A500080819181019711969C938E93FE01E75A64
:105A6000FF4F808191810097D1F628C08E01075A9F
:105A70001F4FFE01E55AFF4F608171818281938142
:105A80000E944900DC01CB01F80191838083DE0193
:105A9000AB5ABF4FFE01E75AFF4F808191811196AB
:105AA0009C938E93FE01EB5AFF4F80819181019769
:105AB000F1F7FE01EB5AFF4F91838083CE018659A7
:105AC0009F4FEA969FAF8EAFEA9789EB91E0EC96F5
:105AD0009FAF8EAFEC9793E0ED969FAFED97EC966E
