S01700004443206D6F746F72206472697665722E7372656389
S11300000C9472000C9487000C9487000C94870065
S11300100C9487000C9487000C9487000C94870040
S11300200C9487000C9487000C9487000C94870030
S11300300C9487000C9487000C9487000C94870020
S11300400C9487000C9487000C9487000C94870010
S11300500C948700CE00E700000119013101310141
S113006031013101310131013101310131013101FC
S113007031013101310131013101310131013101EC
S113008031013101310131013101310131013101DC
S113009031013101CE00E700000119013E01570191
S11300A070018901A101A101A101A101A101A10185
S11300B0A101A101A101A101A101A101A101A1012C
S11300C0A101A101A101A101A101A101A101A1011C
S11300D0A101A101A101A101A101A1013E015701B9
S11300E07001890111241FBECFE5D8E0DEBFCDBF6A
S11300F010E0A0E6B0E0E6E6F3E002C005900D9261
S1130100A836B107D9F70E94A2010C94B1010C944E
S11301100000CF93DF93EC0141E06B8188810E9462
S1130120C20041E06C8189810E94C20041E06D817E
S11301308A810E94C2006D8141E08A810E9432015D
S1130140DF91CF910895FC019681913031F464815F
S113015041E081810E9432010895911105C06481BA
S113016040E081810E9432010895CF93DF93EC0136
S11301700E94A3006B8141E088810E943201DF91DB
S1130180CF91089590E0FC01E154F109E432F105C6
S113019008F067C0E65DFF4F0C94AB0141110CC041
S11301A02AB381E090E002C0880F991F6A95E2F7B4
S11301B0809582238ABB08952AB381E090E002C02F
S11301C0880F991F6A95E2F7822B8ABB0895411123
S11301D00CC027B381E090E002C0880F991F6A9594
S11301E0E2F78095822387BB089527B381E090E0EE
S11301F002C0880F991F6A95E2F7822B87BB089586
S113020041110CC024B381E090E002C0880F991F13
S11302106A95E2F78095822384BB089524B381E034
S113022090E002C0880F991F6A95E2F7822B84BB85
S1130230089541110CC021B381E090E002C0880F01
S1130240991F6A95E2F78095822381BB089521B3B3
S113025081E090E002C0880F991F6A95E2F7822B33
S113026081BB089590E0FC01E154F109E432F10509
S113027008F067C0E25BFF4F0C94AB0141110CC066
S11302802BB381E090E002C0880F991F6A95E2F7D2
S1130290809582238BBB08952BB381E090E002C04C
S11302A0880F991F6A95E2F7822B8BBB0895411141
S11302B00CC028B381E090E002C0880F991F6A95B2
S11302C0E2F78095822388BB089528B381E090E00B
S11302D002C0880F991F6A95E2F7822B88BB0895A4
S11302E041110CC025B381E090E002C0880F991F32
S11302F06A95E2F78095822385BB089525B381E052
S113030090E002C0880F991F6A95E2F7822B85BBA3
S1130310089541110CC022B381E090E002C0880F1F
S1130320991F6A95E2F78095822382BB089522B3D0
S113033081E090E002C0880F991F6A95E2F7822B52
S113034082BB089580E690E00E94890080E690E0F8
S11303500E94B500FFCFEE0FFF1F0590F491E02D32
S10903600994F894FFCF9C
S10B03664242420305060100B6
S9030000FC
