:100000000C9472000C9487000C9487000C94870069
:100010000C9487000C9487000C9487000C94870044
:100020000C9487000C9487000C9487000C94870034
:100030000C9487000C9487000C9487000C94870024
:100040000C9487000C9487000C9487000C94870014
:100050000C948700C100DA00F3000C012401240194
:100060002401240124012401240124012401240168
:100070002401240124012401240124012401240158
:100080002401240124012401240124012401240148
:1000900024012401C100DA00F3000C0131014A01FE
:1000A00063017C01940194019401940194019401F1
:1000B0009401940194019401940194019401940198
:1000C0009401940194019401940194019401940188
:1000D00094019401940194019401940131014A0125
:1000E00063017C0111241FBECFE5D8E0DEBFCDBF88
:1000F00010E0A0E6B0E0ECE4F3E002C005900D9261
:10010000A836B107D9F70E9495010C94A4010C946C
:100110000000CF93DF93EC0141E06B8188810E9466
:10012000B50041E06C8189810E94B50041E06D819C
:100130008A810E94B5006D8141E08A810E9425017B
:10014000DF91CF91089583B7886083BF83B78064C0
:1001500083BF83B7806183BF83B7806283BF83B768
:10016000816083BF80E88CBF089590E0FC01E1547A
:10017000F109E432F10508F067C0E65DFF4F0C9429
:100180009E0141110CC02AB381E090E002C0880FAB
:10019000991F6A95E2F7809582238ABB08952AB356
:1001A00081E090E002C0880F991F6A95E2F7822BE8
:1001B0008ABB089541110CC027B381E090E002C0D2
:1001C000880F991F6A95E2F78095822387BB08956F
:1001D00027B381E090E002C0880F991F6A95E2F78B
:1001E000822B87BB089541110CC024B381E090E0BD
:1001F00002C0880F991F6A95E2F78095822384BB1D
:10020000089524B381E090E002C0880F991F6A9599
:10021000E2F7822B84BB089541110CC021B381E029
:1002200090E002C0880F991F6A95E2F780958223BB
:1002300081BB089521B381E090E002C0880F991F2F
:100240006A95E2F7822B81BB089590E0FC01E154AE
:10025000F109E432F10508F067C0E25BFF4F0C944E
:100260009E0141110CC02BB381E090E002C0880FC9
:10027000991F6A95E2F7809582238BBB08952BB373
:1002800081E090E002C0880F991F6A95E2F7822B07
:100290008BBB089541110CC028B381E090E002C0EF
:1002A000880F991F6A95E2F78095822388BB08958D
:1002B00028B381E090E002C0880F991F6A95E2F7A9
:1002C000822B88BB089541110CC025B381E090E0DA
:1002D00002C0880F991F6A95E2F78095822385BB3B
:1002E000089525B381E090E002C0880F991F6A95B8
:1002F000E2F7822B85BB089541110CC022B381E047
:1003000090E002C0880F991F6A95E2F780958223DA
:1003100082BB089522B381E090E002C0880F991F4C
:100320006A95E2F7822B82BB089580E690E00E94F6
:10033000890080E690E00E94A300FFCFEE0FFF1F30
:0C0340000590F491E02D0994F894FFCF93
:08034C00426363030506010092
:00000001FF
