S0100000444320545249414C2E73726563F1
S11300000C9472000C9487000C9487000C94870065
S11300100C9487000C9487000C9487000C94870040
S11300200C9487000C9487000C9487000C94870030
S11300300C9487000C9487000C9487000C94870020
S11300400C9487000C9487000C9487000C94870010
S11300500C948700F2000B0124013D015501550168
S113006055015501550155015501550155015501DC
S113007055015501550155015501550155015501CC
S113008055015501550155015501550155015501BC
S113009055015501F2000B0124013D0162017B0170
S11300A09401AD01C501C501C501C501C501C50165
S11300B0C501C501C501C501C501C501C501C5010C
S11300C0C501C501C501C501C501C501C501C501FC
S11300D0C501C501C501C501C501C50162017B0199
S11300E09401AD0111241FBECFE5D8E0DEBFCDBF22
S11300F010E0A0E6B0E0ECE3F4E002C005900D925D
S1130100A836B107D9F70E94C6010C941C020C94BE
S11301100000CF93DF93EC0141E06B8188810E9462
S1130120E60041E06C8189810E94E60041E06D8136
S11301308A810E94E6006D8141E08A810E94560115
S113014080E0DF91CF910895FC019681913031F4E4
S1130150648141E081810E94560107C0911105C06C
S1130160648140E081810E94560180E00895CF932C
S1130170DF93EC010E94A4006B8141E088810E941E
S1130180560180E0DF91CF91089583B7886083BFE3
S113019083B7806483BF83B7806183BF83B7806282
S11301A083BF83B7816083BF80E88CBF80E00895FC
S11301B0FC0193B79F7E93BF93B79F7D93BF6381E9
S11301C040E080810E94560180E0089590E0FC01A7
S11301D0E154F109E432F10508F067C0E65DFF4F30
S11301E00C94160241110CC02AB381E090E002C0C5
S11301F0880F991F6A95E2F7809582238ABB089538
S11302002AB381E090E002C0880F991F6A95E2F753
S1130210822B8ABB089541110CC027B381E090E082
S113022002C0880F991F6A95E2F78095822387BBE5
S1130230089527B381E090E002C0880F991F6A9562
S1130240E2F7822B87BB089541110CC024B381E0EF
S113025090E002C0880F991F6A95E2F78095822387
S113026084BB089524B381E090E002C0880F991FF5
S11302706A95E2F7822B84BB089541110CC021B327
S113028081E090E002C0880F991F6A95E2F780959B
S1130290822381BB089521B381E090E002C0880FDE
S11302A0991F6A95E2F7822B81BB089590E0FC01C7
S11302B0E154F109E432F10508F067C0E25BFF4F55
S11302C00C94160241110CC02BB381E090E002C0E3
S11302D0880F991F6A95E2F7809582238BBB089556
S11302E02BB381E090E002C0880F991F6A95E2F772
S11302F0822B8BBB089541110CC028B381E090E0A0
S113030002C0880F991F6A95E2F78095822388BB03
S1130310089528B381E090E002C0880F991F6A9580
S1130320E2F7822B88BB089541110CC025B381E00C
S113033090E002C0880F991F6A95E2F780958223A6
S113034085BB089525B381E090E002C0880F991F12
S11303506A95E2F7822B85BB089541110CC022B344
S113036081E090E002C0880F991F6A95E2F78095BA
S1130370822382BB089522B381E090E002C0880FFB
S1130380991F6A95E2F7822B82BB0895CF93DF937E
S1130390CDB7DEB727970FB6F894DEBF0FBECDBF3B
S11303A087E0E0E6F0E0DE01119601900D928A9577
S11303B0E1F7CE0101960E948900CE0101960E94C8
S11303C0A400CE0101960E94C5002FEF83ED90E3B7
S11303D0215080409040E1F700C00000CE0101961A
S11303E00E94D8002FEF8BE792E921508040904083
S11303F0E1F700C00000CE0101960E94B7002FEF84
S113040087EA91E6215080409040E1F700C0000067
S1130410CE0101960E94D8002FEF8BE792E921507C
S113042080409040E1F700C00000C7CFEE0FFF1FEF
S10F04300590F491E02D0994F894FFCF9E
S10B043C4242420305060100DF
S9030000FC
