:100000000C942A000C943F000C943F000C943F0089
:100010000C943F000C943F000C943F000C943F0064
:100020000C943F000C943F000C943F000C943F0054
:100030000C943F000C943F000C943F000C943F0044
:100040000C943F000C943F000C943F000C943F0034
:100050000C943F0011241FBECFE5D8E0DEBFCDBF1A
:1000600010E0A0E6B0E0E8EEF9E002C005900D92E5
:10007000A63AB107D9F70E941B040C94F2040C9421
:100080000000FC019081943048F581812281282371
:10009000913079F028F0923099F09330C1F020C07F
:1000A0003AB3982F9095892F8323282B2ABB80E081
:1000B000089597B380958923282B27BB80E0089566
:1000C00094B380958923282B24BB80E0089591B3B5
:1000D00080958923282B21BB80E0089581E0089535
:1000E00080E00895FC019081943030F5818168238F
:1000F000913069F028F0923089F09330B1F01EC051
:100100009BB380958923682B6BBB80E0089598B3DF
:1001100080958923682B68BB80E0089595B380950E
:100120008923682B65BB80E0089592B3809589236D
:10013000682B62BB80E0089581E0089580E0089517
:10014000FC015081543008F088C080E090E00DC080
:10015000262F30E0082E02C0359527950A94E2F745
:1001600020FF02C0782F04C001968830910584F3E7
:10017000513011F130F05230D1F1533009F452C006
:100180006EC0413061F42BB381E090E002C0880F73
:10019000991F7A95E2F7822B8BBB80E008952BB3F1
:1001A00081E090E002C0880F991F7A95E2F7809570
:1001B00082238BBB80E00895413061F428B381E055
:1001C00090E002C0880F991F7A95E2F7822B88BBD6
:1001D00080E0089528B381E090E002C0880F991F65
:1001E0007A95E2F78095822388BB80E008954130BC
:1001F00061F425B381E090E002C0880F991F7A95E1
:10020000E2F7822B85BB80E0089525B381E090E082
:1002100002C0880F991F7A95E2F78095822385BBEB
:1002200080E00895413061F422B381E090E002C0A3
:10023000880F991F7A95E2F7822B82BB80E00895A0
:1002400022B381E090E002C0880F991F7A95E2F70F
:100250008095822382BB80E0089581E0089580E04C
:1002600008950E9422040E948002EFE4F3EC31978B
:10027000F1F700C00000089580E690E00E947F033F
:1002800008951F93CF93DF9300D0CDB7DEB78CE3F3
:1002900090E09A83898310E06EC00E94940385E603
:1002A00090E00E947F03612F70E080E090E00E9468
:1002B000B4032FE936E881E0215030408040E1F777
:1002C00000C00000CE0101960E946E040E949403BB
:1002D00069817A8180E090E00E94B40361E082E06D
:1002E0000E94A10389819A81459788F59FE52AEEAE
:1002F00030E0915020403040E1F700C0000089819B
:100300009A81459710F58DE690E00E947F038FED6E
:1003100092E222E0815090402040E1F700C00000CE
:1003200061E082E00E94A10387E790E00E947F03E2
:100330003FEF80E792E0315080409040E1F700C00D
:1003400000000E943C0110E016C0165F14C0165F4A
:1003500089E890E00E947F032FED32E282E0215095
:1003600030408040E1F700C00000612F70E080E085
:1003700090E00E94B403143B08F48FCF0E949403D2
:1003800089E990E00E947F039FE72AE136E09150DF
:1003900020403040E1F700C000000F900F90DF9147
:1003A000CF911F9108951F93CF93DF93CDB7DEB701
:1003B00029970FB6F894DEBF0FBECDBF182F198254
:1003C00088E08A831B8260E0CE0101960E94720061
:1003D00089EF90E00197F1F700C000001C8284E0F3
:1003E0008D831E82E9EFF0E03197F1F700C0000045
:1003F00081E08F8387E188878FEF898714FB44270B
:1004000040F961E0CE0107960E94A00015FB442749
:1004100040F962E0CE0107960E94A00016FB442737
:1004200040F964E0CE0107960E94A000412F441FCE
:100430004427441F60E1CE0107960E94A00089EF87
:1004400090E00197F1F700C000006FEFCE01049635
:100450000E947200E9EFF0E03197F1F700C0000070
:1004600060E0CE0104960E94720089EF90E001974F
:10047000F1F700C00000412F417061E0CE01079606
:100480000E94A00011FB442740F962E0CE010796CC
:100490000E94A00012FB442740F964E0CE010796B9
:1004A0000E94A00013FB442740F960E1CE010796AB
:1004B0000E94A000E9EFF0E03197F1F700C00000E2
:1004C0006FEFCE0104960E94720089EF90E00197D1
:1004D000F1F700C0000060E0CE0104960E947200B7
:1004E000E9EFF0E03197F1F700C0000029960FB670
:1004F000F894DEBF0FBECDBFDF91CF911F9108955D
:100500001F93CF93DF93CDB7DEB729970FB6F8943B
:10051000DEBF0FBECDBF198288E08A831FEF1B8329
:10052000CE0101960E9441001C8284E08D831E83CF
:10053000CE0104960E94410081E08F8387E1888785
:100540001987CE0107960E944100182F8DE292E292
:100550000197F1F700C0000082E00E94D30188E219
:100560000E94D3018FE097E20197F1F700C00000ED
:100570008EE00E94D3018FE097E20197F1F700C06F
:10058000000081E00E94D30183EF91E00197F1F731
:1005900000C0000086E00E94D301812F29960FB68B
:1005A000F894DEBF0FBECDBFDF91CF911F910895AC
:1005B0001F93CF93DF93CDB7DEB729970FB6F8948B
:1005C000DEBF0FBECDBF182F198288E08A831B8241
:1005D0006FEFCE0101960E9472001C8284E08D8331
:1005E0001E8289EF90E00197F1F700C0000081E0E2
:1005F0008F8387E188878FEF898714FB442740F931
:1006000061E0CE0107960E94A00015FB442740F947
:1006100062E0CE0107960E94A00016FB442740F935
:1006200064E0CE0107960E94A000412F441F44279A
:10063000441F60E1CE0107960E94A000E9EFF0E0C0
:100640003197F1F700C000006FEFCE0104960E94D1
:10065000720089EF90E00197F1F700C0000060E0C0
:10066000CE0104960E947200E9EFF0E03197F1F7B5
:1006700000C00000412F417061E0CE0107960E944A
:10068000A00011FB442740F962E0CE0107960E94CA
:10069000A00012FB442740F964E0CE0107960E94B7
:1006A000A00013FB442740F960E1CE0107960E94A9
:1006B000A00089EF90E00197F1F700C000006FEF14
:1006C000CE0104960E947200E9EFF0E03197F1F755
:1006D00000C0000060E0CE0104960E947200E9EFC5
:1006E000F0E03197F1F700C0000029960FB6F894BA
:1006F000DEBF0FBECDBFDF91CF911F9108950F9345
:100700001F93CF938C01C0E081E004C0892F0E9429
:10071000D802CF5FF801EC0FF11D90819111F6CF57
:10072000CF911F910F91089581E00E94D30183EC36
:1007300099E00197F1F700C0000086E00E94D30124
:100740000895813039F058F0823031F0833031F043
:1007500060E005C0605C03C06C5E01C06C5A862F0F
:1007600080680E94D3010895CF92DF92EF92FF92AA
:100770000F931F93CF93DF93CDB7DEB760970FB67C
:10078000F894DEBF0FBECDBF6B017C016115710512
:100790008105910599F09B01AC0100E009C00F5F54
:1007A000CA01B9012AE030E040E050E00E94A20412
:1007B000211531054105510591F701C001E00F30C8
:1007C00050F510E01AC0C701B6012AE030E040E061
:1007D00050E00E94A20469017A01812F90E0019605
:1007E000E02FF0E0E81BF90B81E090E08C0F9D1FFB
:1007F000E80FF91F605D60831F5F101720F3E1E0D1
:10080000F0E0EC0FFD1FE00FF11D1082CE0101960C
:100810000E947F0301C081E060960FB6F894DEBFAE
:100820000FBECDBFDF91CF911F910F91FF90EF9041
:10083000DF90CF9008950E9431010E943C010E94F8
:100840004101FFCFCF93DF9300D000D000D0CDB7D0
:10085000DEB784E4898397E09A839FEF9B838C8340
:1008600086E08D831E82CE0101960E944100CE015A
:1008700004960E94410041E066E0CE0104960E9489
:10088000A00026960FB6F894DEBF0FBECDBFDF9155
:10089000CF910895CF93DF9300D01F92CDB7DEB7ED
:1008A00084E4898387E08A838FEF8B8341E067E06C
:1008B000CE0101960E94A00087EC90E00197F1F72D
:1008C00000C0000040E067E0CE0101960E94A00059
:1008D0000F900F900F90DF91CF910895CF93DF93FA
:1008E000EC011FBC88B7806288BF0E944A041DBC0F
:1008F0001CBC81EC8EBD08B605FEFDCF46B557B5D4
:1009000088B7806288BF81E88EBD08B605FEFDCF3E
:1009100026B537B588B7806288BF1DBC1CBC1EBC1D
:10092000241B350BACEFB5E80E94E30420E038E46B
:1009300048EE51E00E94C4043983288380E0DF91AF
:10094000CF910895A1E21A2EAA1BBB1BFD010DC079
:10095000AA1FBB1FEE1FFF1FA217B307E407F5076F
:1009600020F0A21BB30BE40BF50B661F771F881F4B
:10097000991F1A9469F760957095809590959B01E1
:10098000AC01BD01CF010895052E97FB1EF4009424
:100990000E94DB0457FD07D00E94A20407FC03D08D
:1009A0004EF40C94DB0450954095309521953F4FC3
:1009B0004F4F5F4F089590958095709561957F4F4B
:1009C0008F4F9F4F0895A29FB001B39FC001A39F77
:1009D000700D811D1124911DB29F700D811D112478
:0809E000911D0895F894FFCF6A
:1009E8006F70656E00414E474C453A2000574154A0
:1009F8004348204F5554006F70656E2067617261DF
:100A0800676520616761696E00496E6372656D652F
:100A18006E7420534552564F00444F4F5220434C5A
:060A28004F53454400009D
:00000001FF
