:100000000C94DE000C94F3000C94F3000C94F300B9
:100010000C94F3000C94F3000C94F3000C94F30094
:100020000C94F3000C94F3000C94F3000C94F30084
:100030000C94F3000C94F3000C94F3000C94F30074
:100040000C94F3000C94F3000C94F3000C94F30064
:100050000C94F30001011A0133014C0164016401A5
:100060006401640164016401640164016401640168
:100070006401640164016401640164016401640158
:100080006401640164016401640164016401640148
:100090006401640101011A0133014C0171018A01FB
:1000A000A301BC01D401D401D401D401D401D401F1
:1000B000D401D401D401D401D401D401D401D40198
:1000C000D401D401D401D401D401D401D401D40188
:1000D000D401D401D401D401D401D40171018A0125
:1000E000A301BC01E001E201E401E601E701E7014F
:1000F000E701E701E701E701E701E701E701E701C0
:10010000E701E701E701E701E701E701E701E701AF
:10011000E701E701E701E701E701E701E701E7019F
:10012000E701E701E001E201E401E601FC010C0264
:100130001C022C02760276027602760276027602A3
:1001400076027602760276027602760276027602EF
:1001500076027602760276027602760276027602DF
:10016000760276027602760276027602FC010C02B4
:100170001C022C02470253025F026B0276027602D7
:1001800076027602760276027602760276027602AF
:10019000760276027602760276027602760276029F
:1001A000760276027602760276027602760276028F
:1001B00076027602470253025F026B0211241FBED1
:1001C000CFE5D8E0DEBFCDBF10E0A0E6B0E0E8E3C9
:1001D000FAE002C005900D92A63AB107D9F70E9445
:1001E00069040C941A050C94000090E0FC01E154A1
:1001F000F109E432F10508F067C0E65DFF4F0C94A9
:10020000050541110CC02AB381E090E002C0880FBF
:10021000991F6A95E2F7809582238ABB08952AB3D5
:1002200081E090E002C0880F991F6A95E2F7822B67
:100230008ABB089541110CC027B381E090E002C051
:10024000880F991F6A95E2F78095822387BB0895EE
:1002500027B381E090E002C0880F991F6A95E2F70A
:10026000822B87BB089541110CC024B381E090E03C
:1002700002C0880F991F6A95E2F78095822384BB9C
:10028000089524B381E090E002C0880F991F6A9519
:10029000E2F7822B84BB089541110CC021B381E0A9
:1002A00090E002C0880F991F6A95E2F7809582233B
:1002B00081BB089521B381E090E002C0880F991FAF
:1002C0006A95E2F7822B81BB089590E0FC01E1542E
:1002D000F109E432F10508F067C0E25BFF4F0C94CE
:1002E000050541110CC02BB381E090E002C0880FDE
:1002F000991F6A95E2F7809582238BBB08952BB3F3
:1003000081E090E002C0880F991F6A95E2F7822B86
:100310008BBB089541110CC028B381E090E002C06E
:10032000880F991F6A95E2F78095822388BB08950C
:1003300028B381E090E002C0880F991F6A95E2F728
:10034000822B88BB089541110CC025B381E090E059
:1003500002C0880F991F6A95E2F78095822385BBBA
:10036000089525B381E090E002C0880F991F6A9537
:10037000E2F7822B85BB089541110CC022B381E0C6
:1003800090E002C0880F991F6A95E2F7809582235A
:1003900082BB089522B381E090E002C0880F991FCC
:1003A0006A95E2F7822B82BB089590E0FC01E1544C
:1003B000F109E432F10558F4EE58FF4F0C940505AD
:1003C0006BBB089568BB089565BB089562BB089533
:1003D000E82F442309F450C080B78B7F80BF8E2F55
:1003E00090E0FC01E154F109E432F10508F07EC02F
:1003F000EA56FF4F0C9405052AB381E090E002C055
:10040000880F991F6A95E2F7982F909592239ABBCF
:100410009BB3892B8BBB089527B381E090E002C08A
:10042000880F991F6A95E2F7982F9095922397BBB2
:1004300098B3892B88BB089524B381E090E002C073
:10044000880F991F6A95E2F7982F9095922394BB95
:1004500095B3892B85BB089521B381E090E002C05C
:10046000880F991F6A95E2F7982F9095922391BB78
:1004700092B3892B82BB089590E0FC01E154F1090D
:10048000E432F10598F5E654FF4F0C9405052BB3C3
:1004900081E090E002C0880F991F6A95E2F780958D
:1004A00082238BBB089528B381E090E002C0880FBF
:1004B000991F6A95E2F78095822388BB089525B33A
:1004C00081E090E002C0880F991F6A95E2F780955D
:1004D000822385BB089522B381E090E002C0880F9B
:1004E000991F6A95E2F78095822382BB08950E9446
:1004F00070040E9489032FEF83EC99E02150804023
:100500009040E1F700C00000089580E690E00E946E
:10051000CF0308951F93CF93DF9300D0CDB7DEB7FD
:100520008CE390E09A83898310E06EC00E94DC0324
:1005300085E690E00E94CF03612F70E080E090E0BC
:100540000E9406042FEF89E698E1215080409040F8
:10055000E1F700C00000CE0101960E9491040E94C4
:10056000DC0369817A8180E090E00E94060461E00A
:1005700082E00E94E60389819A81459788F52FEFF2
:1005800085EA9EE0215080409040E1F700C00000E5
:1005900089819A81459710F58DE690E00E94CF03FE
:1005A0002FEF8DE292E2215080409040E1F700C0B1
:1005B000000061E082E00E94E60387E790E00E948D
:1005C000CF032FEF8FE097E2215080409040E1F77A
:1005D00000C000000E94850210E016C0165F14C023
:1005E000165F89E890E00E94CF032FEF8DE292E240
:1005F000215080409040E1F700C00000612F70E082
:1006000080E090E00E940604143B08F48FCF0E9423
:10061000DC0389E990E00E94CF032FEF87EA91E69F
:10062000215080409040E1F700C000000F900F90F3
:10063000DF91CF911F91089541E062E081E40E9433
:1006400065018FE99FE00197F1F700C0000040E0ED
:1006500062E081E40E9465018FE99FE00197F1F774
:1006600000C000000895CF93C82F682F62956F7067
:10067000962F9870892F90E0880F991F6770682BCC
:1006800082E40E94D50141E063E081E40E946501BB
:100690000E941C032C2F287030E0220F331F6C2F78
:1006A0006770622B82E40E94D50141E063E081E43F
:1006B0000E9465010E941C03CF910895CF93C82F1B
:1006C000682F62956F70962F9870892F90E0880F31
:1006D000991F6770682B82E40E94D50140E063E0B7
:1006E00081E40E9465010E941C032C2F287030E0D9
:1006F000220F331F6C2F6770622B82E40E94D5019A
:1007000040E063E081E40E9465010E941C03CF91F8
:10071000089541E060E082E40E94F50041E061E07C
:1007200082E40E94F50041E062E082E40E94F5006C
:1007300041E064E082E40E94F50041E062E081E48F
:100740000E94F50041E063E081E40E94F50082E050
:100750000E945E038FE19EE40197F1F700C0000064
:1007600088E20E945E038FEC97E00197F1F700C0EA
:1007700000008EE00E945E038FEC97E00197F1F796
:1007800000C0000086E00E945E038FEC97E00197B6
:10079000F1F700C0000081E00E945E030895CF934E
:1007A000DF93EC0103C00E943303219688818111FD
:1007B000FACFDF91CF91089581E00E945E038FE12F
:1007C0009EE40197F1F700C0000008956150603188
:1007D00020F4882311F0833020F080E80E945E032B
:1007E0000EC0813019F0823031F009C0862F806848
:1007F0000E945E0304C0862F806C0E945E038FE11E
:100800009EE40197F1F700C000000895CF92DF92B7
:10081000EF92FF920F931F93CF93DF93CDB7DEB785
:1008200060970FB6F894DEBF0FBECDBF6B017C01A1
:10083000611571058105910599F09B01AC0100E0FE
:1008400009C00F5FCA01B9012AE030E040E050E082
:100850000E94C404211531054105510591F701C0DD
:1008600001E010E01AC0C701B6012AE030E040E024
:1008700050E00E94C40469017A01812F90E0019642
:10088000E02FF0E0E81BF90B81E090E08C0F9D1F5A
:10089000E80FF91F605D60831F5F101720F3E1E030
:1008A000F0E0EC0FFD1FE00FF11D1082CE0101966C
:1008B0000E94CF0360960FB6F894DEBF0FBECDBF87
:1008C000DF91CF911F910F91FF90EF90DF90CF902C
:1008D00008950E9477020E9485020E948A02FFCF3B
:1008E00041E065E084E40E94F50040E066E084E4D5
:1008F0000E94F50041E066E084E40E94E80108956A
:1009000041E065E084E40E94650187EC90E0019796
:10091000F1F700C0000040E065E084E40E9465015A
:100920000895CF93DF93EC011FBC88B7806288BF26
:100930000E9480041DBC1CBC81EC8EBD08B605FE67
:10094000FDCF46B557B588B7806288BF81E88EBDB8
:1009500008B605FEFDCF26B537B588B7806288BFDB
:100960001DBC1CBC1EBC241B350BACEFB5E80E94A3
:100970000B0520E038E448EE51E00E94E60439839C
:100980002883DF91CF910895A1E21A2EAA1BBB1BE9
:10099000FD010DC0AA1FBB1FEE1FFF1FA217B3074B
:1009A000E407F50720F0A21BB30BE40BF50B661F61
:1009B000771F881F991F1A9469F760957095809525
:1009C00090959B01AC01BD01CF010895052E97FBC9
:1009D0001EF400940E94FD0457FD07D00E94C40439
:1009E00007FC03D04EF40C94FD04509540953095CF
:1009F00021953F4F4F4F5F4F08959095809570958B
:100A000061957F4F8F4F9F4F0895EE0FFF1F059009
:100A1000F491E02D0994A29FB001B39FC001A39F60
:100A2000700D811D1124911DB29F700D811D112427
:080A3000911D0895F894FFCF19
:100A38006F70656E00414E474C453A20005741544F
:100A48004348204F5554006F70656E20676172618E
:100A5800676520616761696E00496E6372656D65DF
:100A68006E7420534552564F00444F4F5220434C0A
:060A78004F53454400004D
:00000001FF
