S0120000554C545241534F4E49432E737265630E
S11300000C9472000C9487000C9487000C94870065
S11300100C9487000C9487000C9487000C94870040
S11300200C9487000C9487000C9487000C94870030
S11300300C9487000C9487000C9487000C94870020
S11300400C9487000C9487000C9487000C94870010
S11300500C9487009500AE00C700E000F800F8009B
S1130060F800F800F800F800F800F800F800F800CC
S1130070F800F800F800F800F800F800F800F800BC
S1130080F800F800F800F800F800F800F800F800AC
S1130090F800F8009500AE00C700E00005011E015D
S11300A0370150016801680168016801680168014D
S11300B068016801680168016801680168016801F4
S11300C068016801680168016801680168016801E4
S11300D068016801680168016801680105011E0181
S11300E03701500111241FBECFE5D8E0DEBFCDBFDC
S11300F010E0A0E6B0E0E2EAFAE002C005900D925A
S1130100AC36B107D9F70E948E040C944F050C94B9
S1130110000090E0FC01E154F109E432F10508F03B
S113012067C0E65DFF4F0C943A0541110CC02AB339
S113013081E090E002C0880F991F6A95E2F78095EC
S113014082238ABB08952AB381E090E002C0880F1D
S1130150991F6A95E2F7822B8ABB089541110CC05E
S113016027B381E090E002C0880F991F6A95E2F7F7
S11301708095822387BB089527B381E090E002C075
S1130180880F991F6A95E2F7822B87BB0895411166
S11301900CC024B381E090E002C0880F991F6A95D7
S11301A0E2F78095822384BB089524B381E090E034
S11301B002C0880F991F6A95E2F7822B84BB0895C9
S11301C041110CC021B381E090E002C0880F991F57
S11301D06A95E2F78095822381BB089521B381E07B
S11301E090E002C0880F991F6A95E2F7822B81BBC9
S11301F0089590E0FC01E154F109E432F10508F0BE
S113020067C0E25BFF4F0C943A0541110CC02BB35D
S113021081E090E002C0880F991F6A95E2F780950B
S113022082238BBB08952BB381E090E002C0880F3A
S1130230991F6A95E2F7822B8BBB089541110CC07C
S113024028B381E090E002C0880F991F6A95E2F715
S11302508095822388BB089528B381E090E002C092
S1130260880F991F6A95E2F7822B88BB0895411184
S11302700CC025B381E090E002C0880F991F6A95F5
S1130280E2F78095822385BB089525B381E090E051
S113029002C0880F991F6A95E2F7822B85BB0895E7
S11302A041110CC022B381E090E002C0880F991F75
S11302B06A95E2F78095822382BB089522B381E098
S11302C090E002C0880F991F6A95E2F7822B82BBE7
S11302D00895FC019081943048F58181228128237E
S11302E0913079F028F0923099F09330C1F020C029
S11302F03AB3982F9095892F8323282B2ABB80E02B
S1130300089597B380958923282B27BB80E008950F
S113031094B380958923282B24BB80E0089591B35E
S113032080958923282B21BB80E0089581E00895DE
S113033080E00895FC019081943030F58181682338
S1130340913069F028F0923089F09330B1F01EC0FA
S11303509BB380958923682B6BBB80E0089598B389
S113036080958923682B68BB80E0089595B38095B8
S11303708923682B65BB80E0089592B38095892317
S1130380682B62BB80E0089581E0089580E00895C1
S1130390FC015081543008F088C080E090E00DC02A
S11303A0262F30E0082E02C0359527950A94E2F7EF
S11303B020FF02C0782F04C001968830910584F391
S11303C0513011F130F05230D1F1533009F452C0B0
S11303D06EC0413061F42BB381E090E002C0880F1D
S11303E0991F7A95E2F7822B8BBB80E008952BB39B
S11303F081E090E002C0880F991F7A95E2F780951A
S113040082238BBB80E00895413061F428B381E0FE
S113041090E002C0880F991F7A95E2F7822B88BB7F
S113042080E0089528B381E090E002C0880F991F0E
S11304307A95E2F78095822388BB80E00895413065
S113044061F425B381E090E002C0880F991F7A958A
S1130450E2F7822B85BB80E0089525B381E090E02C
S113046002C0880F991F7A95E2F78095822385BB95
S113047080E00895413061F422B381E090E002C04D
S1130480880F991F7A95E2F7822B82BB80E008954A
S113049022B381E090E002C0880F991F7A95E2F7B9
S11304A08095822382BB80E0089581E0089580E0F6
S11304B008951F93CF93DF93CDB7DEB729970FB677
S11304C0F894DEBF0FBECDBF182F198288E08A834F
S11304D01B8260E0CE0101960E949A0189EF90E0B0
S11304E00197F1F700C000001C8284E08D831E8216
S11304F0E9EFF0E03197F1F700C0000081E08F836D
S113050087E188878FEF898714FB442740F961E0EE
S1130510CE0107960E94C80115FB442740F962E00A
S1130520CE0107960E94C80116FB442740F964E0F7
S1130530CE0107960E94C801412F441F4427441F3F
S113054060E1CE0107960E94C80189EF90E001970F
S1130550F1F700C000006FEFCE0104960E949A01EB
S1130560E9EFF0E03197F1F700C0000060E0CE0160
S113057004960E949A0189EF90E00197F1F700C078
S11305800000412F417061E0CE0107960E94C8012E
S113059011FB442740F962E0CE0107960E94C8018E
S11305A012FB442740F964E0CE0107960E94C8017B
S11305B013FB442740F960E1CE0107960E94C8016D
S11305C0E9EFF0E03197F1F700C000006FEFCE01E2
S11305D004960E949A0189EF90E00197F1F700C018
S11305E0000060E0CE0104960E949A01E9EFF0E079
S11305F03197F1F700C0000029960FB6F894DEBFDA
S11306000FBECDBFDF91CF911F9108951F93CF935C
S1130610DF93CDB7DEB729970FB6F894DEBF0FBED0
S1130620CDBF198288E08A831FEF1B83CE01019618
S11306300E9469011C8284E08D831E83CE0104968E
S11306400E94690181E08F8387E188871987CE0141
S113065007960E946901182F8DE292E20197F1F743
S113066000C0000082E00E94590288E20E94590200
S11306708FE097E20197F1F700C000008EE00E943E
S113068059028FE097E20197F1F700C0000081E082
S11306900E94590283EF91E00197F1F700C0000036
S11306A086E00E945902812F29960FB6F894DEBF86
S11306B00FBECDBFDF91CF911F9108951F93CF93AC
S11306C0DF93CDB7DEB729970FB6F894DEBF0FBE20
S11306D0CDBF182F198288E08A831B826FEFCE0169
S11306E001960E949A011C8284E08D831E8289EF08
S11306F090E00197F1F700C0000081E08F8387E16B
S113070088878FEF898714FB442740F961E0CE0185
S113071007960E94C80115FB442740F962E0CE0108
S113072007960E94C80116FB442740F964E0CE01F5
S113073007960E94C801412F441F4427441F60E1CB
S1130740CE0107960E94C801E9EFF0E03197F1F776
S113075000C000006FEFCE0104960E949A0189EF59
S113076090E00197F1F700C0000060E0CE0104962C
S11307700E949A01E9EFF0E03197F1F700C0000020
S1130780412F417061E0CE0107960E94C80111FB20
S1130790442740F962E0CE0107960E94C80112FB8B
S11307A0442740F964E0CE0107960E94C80113FB78
S11307B0442740F960E1CE0107960E94C80189EF01
S11307C090E00197F1F700C000006FEFCE010496AE
S11307D00E949A01E9EFF0E03197F1F700C00000C0
S11307E060E0CE0104960E949A01E9EFF0E03197AF
S11307F0F1F700C0000029960FB6F894DEBF0FBED3
S1130800CDBFDF91CF911F9108950F931F93CF9385
S11308108C01C0E081E004C0892F0E945E03CF5F99
S1130820F801EC0FF11D90819111F6CFCF911F913A
S11308300F91089581E00E94590283EC99E0019799
S1130840F1F700C0000086E00E9459020895CF929B
S1130850DF92EF92FF920F931F93CF93DF93CDB765
S1130860DEB760970FB6F894DEBF0FBECDBF6B0145
S11308707C01611571058105910599F09B01AC011D
S113088000E009C00F5FCA01B9012AE030E040E08E
S113089050E00E94F904211531054105510591F7F5
S11308A001C001E00F3050F510E01AC0C701B601D5
S11308B02AE030E040E050E00E94F90469017A0146
S11308C0812F90E00196E02FF0E0E81BF90B81E026
S11308D090E08C0F9D1FE80FF91F605D60831F5F20
S11308E0101720F3E1E0F0E0EC0FFD1FE00FF11D25
S11308F01082CE0101960E94050401C081E0609639
S11309000FB6F894DEBF0FBECDBFDF91CF911F911C
S11309100F91FF90EF90DF90CF900895CF93DF93E6
S113092000D0CDB7DEB70E9406031A8219820E9456
S1130930B704CE0101960E94BD040E941A0480E609
S113094090E00E94050469817A8180E090E00E9431
S1130950270489E690E00E9405042FEF89E698E1D8
S1130960215080409040E1F700C00000E2CF41E018
S113097065E084E40E9489000895CF93DF93EC013D
S11309801FBC80E288BF41E065E084E40E94F90076
S113099087EC90E00197F1F700C0000040E065E0CB
S11309A084E40E94F90081EC8EBD08B605FEFDCFFB
S11309B086B597B520E228BF21E82EBD08B605FE0E
S11309C0FDCF26B537B540E248BF1DBC1CBC1EBCDC
S11309D0281B390BA8E2B7E80E94400520E038E460
S11309E048EE51E00E941B0539832883DF91CF91A3
S11309F00895A1E21A2EAA1BBB1BFD010DC0AA1F5C
S1130A00BB1FEE1FFF1FA217B307E407F50720F073
S1130A10A21BB30BE40BF50B661F771F881F991FEE
S1130A201A9469F760957095809590959B01AC0137
S1130A30BD01CF010895052E97FB1EF400940E947A
S1130A40320557FD07D00E94F90407FC03D04EF489
S1130A500C94320550954095309521953F4F4F4F5A
S1130A605F4F089590958095709561957F4F8F4F56
S1130A709F4F0895EE0FFF1F0590F491E02D099408
S1130A80A29FB001B39FC001A39F700D811D1124CB
S1130A90911DB29F700D811D1124911D0895F8942C
S1050AA0FFCF82
S10F0AA244495354414E434500636D0029
S9030000FC
