:100000000C942A000C943C000C943C000C943C0092
:100010000C943C000C943C000C943C000C943C0070
:100020000C943C000C943C000C943C000C94AF00ED
:100030000C943C000C943C000C943C000C943C0050
:100040000C943C000C943C000C943C000C943C0040
:100050000C943C0011241FBECFE5D8E0DEBFCDBF1D
:1000600010E0A0E6B0E001C01D92A236B107E1F7B2
:100070000E94E7000C94FF000C940000DF93CF93E4
:1000800000D000D000D0CDB7DEB78A836B834C831D
:10009000E2E5F0E01082A3E5B0E0E3E5F0E0808186
:1000A00080688C938A81282F30E03E832D838D8158
:1000B0009E8181309105E9F02D813E81223031050C
:1000C0002CF48D819E81009761F038C02D813E8196
:1000D00022303105E9F08D819E818330910501F157
:1000E0002DC0A3E5B0E0E3E5F0E0808181608C9372
:1000F00025C0A3E5B0E0E3E5F0E0808181608C936A
:10010000A3E5B0E0E3E5F0E0808182608C9316C067
:10011000A3E5B0E0E3E5F0E0808184608C930EC05D
:10012000A3E5B0E0E3E5F0E0808181608C93A3E596
:10013000B0E0E3E5F0E0808184608C93A9E5B0E075
:10014000E9E5F0E0808181608C93898126960FB685
:10015000F894DEBF0FBECDBFCF91DF9108951F92FF
:100160000F920FB60F9211248F939F93AF93BF936B
:10017000EF93FF93DF93CF93CDB7DEB7809160000D
:10018000909161000196909361008093600080914E
:100190006000909161008430910561F4ABE3B0E0C0
:1001A000EBE3F0E0908180E889278C931092610066
:1001B00010926000CF91DF91FF91EF91BF91AF91CD
:1001C0009F918F910F900FBE0F901F901895DF9306
:1001D000CF93CDB7DEB7EAE3F0E08FEF8083EBE3B8
:1001E000F0E01082AFE5B0E0EFE5F0E080818068FC
:1001F0008C9381E060E040E00E943E00FFCFF894E5
:02020000FFCF2E
:00000001FF
