:100000000C942A000C943F000C943F000C943F0089
:100010000C943F000C943F000C943F000C943F0064
:100020000C943F000C943F000C943F000C943F0054
:100030000C943F000C943F000C943F000C943F0044
:100040000C943F000C943F000C943F000C943F0034
:100050000C943F0011241FBECFE5D8E0DEBFCDBF1A
:1000600010E0A0E6B0E0E4E9F7E102C005900D92EF
:10007000A237B107D9F70E94900A0C94C80B0C94D0
:100080000000EF92FF920F931F937B018C0120E001
:1000900030E040E05FE40E94410388238CF0C80117
:1000A000B70120E030E040E05FE40E94B9010E9427
:1000B000A1039B01AC01205030404040504806C095
:1000C000C801B7010E94A1039B01AC01B901CA019B
:1000D0001F910F91FF90EF900895A0E0B0E0E3E74B
:1000E000F0E00C94910BDC012B01FA019C91923011
:1000F00008F439C1EB018881823008F433C19430AF
:1001000069F4843009F02FC111969C91119789816F
:10011000981709F428C1A0E6B0E025C1843009F49D
:1001200021C18230A9F4923009F01DC19A01AD01BC
:1001300088E0EA010990AE01E90109929E0181502F
:10014000C1F7E201898111969C918923818308C1BD
:10015000923009F407C112962D903C901397EB0151
:100160008A819B811496AD90BD90CD90DC901797BD
:10017000EC80FD800E811F819101281B390BB90194
:1001800037FF04C066277727621B730B6032710547
:100190000CF061C0121613066CF537014801062EEB
:1001A00004C096948794779467940A94D2F721E0D8
:1001B00030E040E050E004C0220F331F441F551FC1
:1001C0006A95D2F721503040404050402E213F21C7
:1001D00040235123211531054105510521F021E02E
:1001E00030E040E050E079018A01E628F72808294C
:1001F00019293CC0232BD1F1260E371E35014601AB
:10020000062E04C096948794779467940A94D2F744
:1002100021E030E040E050E004C0220F331F441FD3
:10022000551F6A95D2F721503040404050402A2156
:100230003B214C215D21211531054105510521F05E
:1002400021E030E040E050E059016A01A628B728DB
:10025000C828D9280BC0821593052CF01C01AA24AC
:10026000BB24650103C0EE24FF24870111969C91F5
:10027000D20111968C91981709F445C0992339F051
:10028000A80197012A193B094C095D0906C0A6017E
:1002900095012E193F09400B510B57FD08C01182E3
:1002A0003382228224833583468357831DC081E0B5
:1002B00081833382228288279927DC01821B930B5A
:1002C000A40BB50B84839583A683B7830DC0220F3F
:1002D000331F441F551F24833583468357838281F0
:1002E000938101979383828324813581468157814D
:1002F000DA01C9010197A109B1098F5F9F4FAF4F83
:10030000BF4328F30BC0918333822282EA0CFB1C8B
:100310000C1D1D1DE482F5820683178383E0808314
:10032000248135814681578157FF1AC0C901AA2708
:1003300097FDA095BA2F81709070A070B0705695FF
:10034000479537952795822B932BA42BB52B848328
:100350009583A683B7838281938101969383828359
:10036000DF0101C0D201CD01CDB7DEB7E2E10C94CF
:10037000AD0BA0E2B0E0EFEBF1E00C949D0B6983D4
:100380007A838B839C832D833E834F835887E9E058
:10039000EE2EF12CEC0EFD1ECE010196B7010E944F
:1003A000CA048E010F5E1F4FCE010596B8010E9450
:1003B000CA048A8991E089278A8BC701B801AE01F6
:1003C000475E5F4F0E946D000E94F503A096E6E035
:1003D0000C94B90BA0E2B0E0E0EFF1E00C949D0BBF
:1003E00069837A838B839C832D833E834F835887D5
:1003F000F9E0EF2EF12CEC0EFD1ECE010196B701B7
:100400000E94CA048E010F5E1F4FCE010596B801EF
:100410000E94CA04C701B801AE01475E5F4F0E9447
:100420006D000E94F503A096E6E00C94B90BA0E2E3
:10043000B0E0EDE1F2E00C94910B69837A838B8359
:100440009C832D833E834F835887CE010196BE0146
:10045000675F7F4F0E94CA04CE010596BE016F5EA2
:100460007F4F0E94CA049985923088F08989823032
:10047000C8F0943019F4823051F404C0843029F467
:10048000923081F480E690E0C6C0923049F420E0DA
:100490009A858A89981321E02A87CE010996BBC0E4
:1004A000823049F420E09A858A89981321E02A8BCA
:1004B000CE014196B0C02D843E844F8458886D880B
:1004C0007E888F88988CEE24FF248701AA24BB2481
:1004D000650140E050E060E070E0E0E0F0E0C10184
:1004E00081709070892BE9F0E60CF71C081D191D2E
:1004F0009A01AB012A0D3B1D4C1D5D1D80E090E073
:10050000A0E0B0E0E614F7040805190520F481E046
:1005100090E0A0E0B0E0BA01A901480F591F6A1F9E
:100520007B1FAA0CBB1CCC1CDD1C97FE08C081E005
:1005300090E0A0E0B0E0A82AB92ACA2ADB2A3196C6
:10054000E032F10549F0660C771C881C991C569422
:10055000479437942794C3CFFA85EA892B893C893D
:100560008B859C85280F391F2E5F3F4F17C0CA010E
:1005700081709070892B61F016950795F794E79438
:1005800080E090E0A0E0B0E8E82AF92A0A2B1B2BD3
:1005900076956795579547952F5F3F4F77FDE7CF46
:1005A0000CC0440F551F661F771F17FD4160EE0CEE
:1005B000FF1C001F111F21503040403090E05907B0
:1005C00090E0690790E4790760F32B8F3C8FDB01A3
:1005D000CA018F779070A070B07080349105A1052A
:1005E000B10561F447FD0AC0E114F10401051105EC
:1005F00029F0405C5F4F6F4F7F4F40781A8EFE1797
:1006000011F081E08A8F4D8F5E8F6F8F78A383E02A
:10061000898FCE0149960E94F503A096E2E10C94E1
:10062000AD0BA8E1B0E0E7E1F3E00C949D0B69832A
:100630007A838B839C832D833E834F83588789E005
:10064000E82EF12CEC0EFD1ECE010196B7010E94A2
:10065000CA048E010F5E1F4FCE010596B8010E949D
:10066000CA048985823040F08989823028F0C70128
:10067000B8010E94420501C08FEF6896E6E00C9435
:10068000B90BA8E1B0E0E7E4F3E00C949D0B6983BB
:100690007A838B839C832D833E834F83588789E0A5
:1006A000E82EF12CEC0EFD1ECE010196B7010E9442
:1006B000CA048E010F5E1F4FCE010596B8010E943D
:1006C000CA048985823040F08989823028F0C701C8
:1006D000B8010E94420501C08FEF6896E6E00C94D5
:1006E000B90BA8E1B0E0E7E7F3E00C949D0B698358
:1006F0007A838B839C832D833E834F83588789E045
:10070000E82EF12CEC0EFD1ECE010196B7010E94E1
:10071000CA048E010F5E1F4FCE010596B8010E94DC
:10072000CA048985823040F08989823028F0C70167
:10073000B8010E94420501C081E06896E6E00C9491
:10074000B90BACE0B0E0E7EAF3E00C94A10B6983ED
:100750007A838B839C83CE010196BE016B5F7F4FB2
:100760000E94CA048D81823061F1823050F1843060
:1007700021F48E81882351F12EC02F81388537FDD9
:1007800020C06E812F3131051CF06623F9F023C0A3
:100790008EE190E0821B930B29853A854B855C8521
:1007A00004C056954795379527958A95D2F76623C5
:1007B000B1F050954095309521953F4F4F4F5F4F89
:1007C0000EC020E030E040E050E009C02FEF3FEFE6
:1007D0004FEF5FE704C020E030E040E050E8B901AF
:1007E000CA012C96E2E00C94BD0BDF92EF92FF92CF
:1007F0000F931F93FC01E480F58006811781D1805F
:100800008081823048F480E090E0A0E1B0E0E82A06
:10081000F92A0A2B1B2BA5C0843009F49FC0823013
:1008200021F4EE24FF24870105C0E114F104010541
:10083000110519F4E0E0F0E096C0628173819FEF4A
:10084000623879070CF05BC022E83FEF261B370BBC
:100850002A3131052CF020E030E040E050E02AC0A1
:10086000B801A701022E04C0769567955795479564
:100870000A94D2F781E090E0A0E0B0E004C0880FD5
:10088000991FAA1FBB1F2A95D2F70197A109B10989
:100890008E219F21A023B1230097A105B10521F04E
:1008A00081E090E0A0E0B0E09A01AB01282B392B69
:1008B0004A2B5B2BDA01C9018F779070A070B07062
:1008C00080349105A105B10539F427FF09C0205CEA
:1008D0003F4F4F4F5F4F04C0215C3F4F4F4F5F4F23
:1008E000E0E0F0E02030A0E03A07A0E04A07A0E412
:1008F0005A0710F0E1E0F0E079018A0127C0603882
:10090000710564F5FB01E158FF4FD801C7018F77EE
:100910009070A070B07080349105A105B10539F4D4
:10092000E7FE0DC080E490E0A0E0B0E004C08FE3FB
:1009300090E0A0E0B0E0E80EF91E0A1F1B1F17FFB1
:1009400005C016950795F794E794319687E01695BC
:100950000795F794E7948A95D1F705C0EE24FF2414
:100960008701EFEFF0E06E2F679566276795902F70
:100970009F77D794DD24D7948E2F8695492F462BC9
:10098000582F5D29B701CA011F910F91FF90EF9079
:10099000DF900895FC01DB01408151812281622FAB
:1009A0006F7770E0221F2227221F9381892F880FE3
:1009B000822B282F30E0991F9927991F11969C931D
:1009C000119721153105A9F54115510561057105ED
:1009D00011F482E037C082E89FEF13969C938E93C8
:1009E00012979A01AB0167E0220F331F441F551F76
:1009F0006A95D1F783E08C930DC0220F331F441FFB
:100A0000551F12968D919C911397019713969C9365
:100A10008E931297203080E0380780E0480780E40A
:100A2000580758F314962D933D934D935C93179765
:100A300008952F3F310579F4411551056105710580
:100A400019F484E08C93089564FF03C081E08C93D3
:100A500012C01C9210C02F57304013963C932E9317
:100A6000129783E08C9387E0440F551F661F771F12
:100A70008A95D1F7706414964D935D936D937C9332
:100A8000179708951F93DC01FB019C91923008F4A5
:100A900047C08081823008F443C0943051F41196ED
:100AA0001C91843099F58181682F70E0611B710978
:100AB0003FC0843021F0923031F48230B9F181812D
:100AC000882389F12DC011961C9111978230F1F085
:100AD00081811817D9F412962D913C911397828138
:100AE00093818217930794F028173907BCF0149666
:100AF0008D919D910D90BC91A02D248135814681D1
:100B00005781281739074A075B0718F4112341F06A
:100B10000AC082179307A407B50740F4112319F000
:100B200061E070E005C06FEF7FEF02C060E070E051
:100B3000CB011F910895DF93CF93CDB7DEB72797F1
:100B40000FB6F894DEBF0FBECDBF9D838C831B8292
:100B5000EC81FD818081843018F081E08B837DC041
:100B6000EC81FD819181EC81FD81828189238983E2
:100B7000EC81FD818081282F30E03F832E838E81A0
:100B80009F818130910559F12E813F8122303105BD
:100B90002CF48E819F81009769F05FC02E813F8188
:100BA0002230310589F18E819F818330910509F4CE
:100BB00040C053C0EAE3F0E080819181982FEC813E
:100BC000FD818181809589238A83EAE3F0E09A811F
:100BD0008981892B882F90E0918380833EC0E7E351
:100BE000F0E080819181982FEC81FD818181809559
:100BF00089238A83E7E3F0E09A818981892B882F12
:100C000090E09183808329C0E4E3F0E080819181CA
:100C1000982FEC81FD818181809589238A83E4E38B
:100C2000F0E09A818981892B882F90E091838083DD
:100C300014C0E1E3F0E080819181982FEC81FD8187
:100C40008181809589238A83E1E3F0E09A8189811B
:100C5000892B882F90E0918380838B8127960FB614
:100C6000F894DEBF0FBECDBFCF91DF910895DF9323
:100C7000CF9300D000D00F92CDB7DEB79B838A838D
:100C80001982EA81FB818081843018F081E08983B8
:100C90004CC0EA81FB818081282F30E03D832C838A
:100CA0008C819D818130910501F12C813D81223023
:100CB00031052CF48C819D81009761F036C02C8128
:100CC0003D8122303105E1F08C819D818330910599
:100CD00011F12BC0AAE3B0E0EA81FB818281882F69
:100CE00090E011969C938E9320C0A7E3B0E0EA8138
:100CF000FB818281882F90E011969C938E9315C082
:100D0000A4E3B0E0EA81FB818281882F90E0119614
:100D10009C938E930AC0A1E3B0E0EA81FB818281BB
:100D2000882F90E011969C938E9389810F900F905D
:100D30000F900F900F90CF91DF910895DF93CF9395
:100D4000CDB7DEB727970FB6F894DEBF0FBECDBF85
:100D50009D838C831B82EC81FD818081843018F01F
:100D600081E08B837DC0EC81FD819181EC81FD81EF
:100D7000828189238983EC81FD818081282F30E065
:100D80003F832E838E819F818130910559F12E8181
:100D90003F81223031052CF48E819F81009769F0CC
:100DA0005FC02E813F812230310589F18E819F8184
:100DB0008330910509F440C053C0EAE3F0E080813C
:100DC0009181982FEC81FD818181809589238A838F
:100DD000EAE3F0E09A818981892B882F90E0918362
:100DE00080833EC0E7E3F0E080819181982FEC8121
:100DF000FD818181809589238A83E7E3F0E09A81F0
:100E00008981892B882F90E09183808329C0E4E336
:100E1000F0E080819181982FEC81FD818181809526
:100E200089238A83E4E3F0E09A818981892B882FE2
:100E300090E09183808314C0E1E3F0E080819181B0
:100E4000982FEC81FD818181809589238A83E1E35C
:100E5000F0E09A818981892B882F90E091838083AB
:100E60008B8127960FB6F894DEBF0FBECDBFCF9112
:100E7000DF910895DF93CF93CDB7DEB727970FB6F5
:100E8000F894DEBF0FBECDBF9B838A837D836C83C6
:100E90001982EA81FB818081843018F081E08983A6
:100EA00040C0EA81FB818081282F30E03F832E8380
:100EB0008E819F8181309105E9F02E813F81223022
:100EC00031052CF48E819F81009761F02AC02E811C
:100ED0003F8122303105B1F08E819F8183309105B1
:100EE000C9F01FC0E9E3F0E080819181EC81FD81D0
:100EF000808317C0E6E3F0E080819181EC81FD8181
:100F000080830FC0E3E3F0E080819181EC81FD817B
:100F1000808307C0E0E3F0E080819181EC81FD8176
:100F20008083898127960FB6F894DEBF0FBECDBFB0
:100F3000CF91DF910895DF93CF93CDB7DEB7279799
:100F40000FB6F894DEBF0FBECDBF9B838A837D832F
:100F50006C831982EA81FB818081843018F081E002
:100F6000898376C0EA81FB818081282F30E03F832E
:100F70002E834E815F814130510561F18E819F81C9
:100F80008230910534F42E813F812115310569F0BD
:100F90005FC04E815F814230510589F18E819F8112
:100FA0008330910509F440C053C0E9E3F0E02081AB
:100FB0003181EA81FB818181882F90E0A90102C003
:100FC000569547958A95E2F7CA018170EC81FD81BB
:100FD00080833EC0E6E3F0E020813181EA81FB813D
:100FE0008181882F90E0A90102C0569547958A9586
:100FF000E2F7CA018170EC81FD81808329C0E3E3BF
:10100000F0E020813181EA81FB818181882F90E0AD
:10101000A90102C0569547958A95E2F7CA018170E9
:10102000EC81FD81808314C0E0E3F0E02081318118
:10103000EA81FB818181882F90E0A90102C0569549
:1010400047958A95E2F7CA018170EC81FD81808322
:10105000898127960FB6F894DEBF0FBECDBFCF9122
:10106000DF910895DF93CF9300D000D000D0CDB7AB
:10107000DEB79B838A836C831982EA81FB8180813E
:10108000843018F081E0898340C0EA81FB8180814F
:10109000282F30E03E832D838D819E818130910504
:1010A000E9F02D813E81223031052CF48D819E8125
:1010B000009761F02AC02D813E8122303105B1F0C8
:1010C0008D819E8183309105C9F01FC0EBE3F0E074
:1010D0008C81882F90E09183808317C0E8E3F0E053
:1010E0008C81882F90E0918380830FC0E5E3F0E04E
:1010F0008C81882F90E09183808307C0E2E3F0E049
:101100008C81882F90E091838083898126960FB609
:10111000F894DEBF0FBECDBFCF91DF910895DF936E
:10112000CF93CDB7DEB728970FB6F894DEBF0FBECA
:10113000CDBF9D838C836E831B82EC81FD8180817A
:10114000843018F081E08B837BC0EC81FD8191813C
:101150008E8189238983EC81FD818081282F30E075
:1011600038872F838F8198858130910559F12F81A0
:101170003885223031052CF48F819885009769F0ED
:101180005FC02F8138852230310589F18F819885A4
:101190008330910509F440C053C0EBE3F0E0808157
:1011A0009181982FEC81FD818181809589238A83AB
:1011B000EBE3F0E09A818981892B882F90E091837D
:1011C00080833EC0E8E3F0E080819181982FEC813C
:1011D000FD818181809589238A83E8E3F0E09A810B
:1011E0008981892B882F90E09183808329C0E5E352
:1011F000F0E080819181982FEC81FD818181809543
:1012000089238A83E5E3F0E09A818981892B882FFD
:1012100090E09183808314C0E2E3F0E080819181CB
:10122000982FEC81FD818181809589238A83E2E377
:10123000F0E09A818981892B882F90E091838083C7
:101240008B8128960FB6F894DEBF0FBECDBFCF912D
:10125000DF910895DF93CF93CDB7DEB72B970FB60D
:10126000F894DEBF0FBECDBF9E838D836F835987F9
:1012700048871C82ED81FE818081843018F081E0F6
:101280008C838AC01A82198215C08F81882F90E0C2
:10129000098002C0959587950A94E2F78170907055
:1012A000882319F089818B830AC089819A810196EC
:1012B0009A83898389819A818830910534F3ED81FD
:1012C000FE818081282F30E03B872A874A855B8515
:1012D0004130510549F18A859B858230910534F46E
:1012E0002A853B852115310561F056C04A855B850D
:1012F0004230510561F18A859B8583309105D1F19A
:101300004BC0E9E3F0E0208131818B81882F90E0B0
:10131000A90102C0569547958A95E2F7CA018170E6
:10132000E885F985808338C0E6E3F0E020813181EB
:101330008B81882F90E0A90102C0569547958A9528
:10134000E2F7CA018170E885F985808325C0E3E36F
:10135000F0E0208131818B81882F90E0A90102C0CB
:10136000569547958A95E2F7CA018170E885F98517
:10137000808312C0E0E3F0E0208131818B81882FEF
:1013800090E0A90102C0569547958A95E2F7CA01F7
:101390008170E885F98580838C812B960FB6F8944F
:1013A000DEBF0FBECDBFCF91DF910895DF93CF9306
:1013B000CDB7DEB729970FB6F894DEBF0FBECDBF0D
:1013C0009E838D836F831C82ED81FE8180818430BA
:1013D00018F081E08C839AC01A82198215C08F811F
:1013E000882F90E0098002C0959587950A94E2F7CE
:1013F00081709070882319F089818B830AC089815C
:101400009A8101969A83898389819A81883091058E
:1014100034F3ED81FE818081282F30E039872887E1
:10142000888599858130910569F128853985223033
:1014300031052CF488859985009769F067C0288567
:10144000398522303105A9F1888599858330910548
:1014500009F446C05BC0ABE3B0E0EBE3F0E04081F1
:1014600051818B81282F30E081E090E0022E02C074
:10147000880F991F0A94E2F78427952711969C9369
:101480008E9344C0A8E3B0E0E8E3F0E040815181EE
:101490008B81282F30E081E090E0022E02C0880F7F
:1014A000991F0A94E2F78427952711969C938E93AF
:1014B0002DC0A8E3B0E0E5E3F0E0408151818B81ED
:1014C000282F30E081E090E0022E02C0880F991FA3
:1014D0000A94E2F78427952711969C938E9316C061
:1014E000A8E3B0E0E2E3F0E0408151818B81282F56
:1014F00030E081E090E0022E02C0880F991F0A942C
:10150000E2F78427952711969C938E938C812996D8
:101510000FB6F894DEBF0FBECDBFCF91DF91089517
:10152000DF93CF93CDB7DEB7AB970FB6F894DEBF9E
:101530000FBECDBFCE0142969E8F8D8FEEE6F0E0BE
:10154000F8A3EF8FF3E0F9A3EF8DF8A100808F8D62
:1015500098A1019698A38F8FED8DFE8D00828D8DC1
:101560009E8D01969E8F8D8F99A1915099A3E9A18F
:10157000EE2351F7CE0145969BA38AA3EBE6F0E05C
:10158000FDA3ECA3F3E0FEA3ECA1FDA100808CA1E0
:101590009DA101969DA38CA3EAA1FBA100828AA133
:1015A0009BA101969BA38AA39EA191509EA3EEA10D
:1015B000EE2351F7CE01489698A78FA3E8E6F0E016
:1015C000FAA7E9A7F3E0FBA7E9A5FAA5008089A59A
:1015D0009AA501969AA789A7EFA1F8A500828FA1E5
:1015E00098A5019698A78FA39BA591509BA7EBA5C3
:1015F000EE2351F7CE0145960E949B05CE014896F9
:101600006FEF0E948F08E8E3F0E08FEF80839E0188
:10161000255E3F4FCE01459660E2A9010E942A094E
:101620008B8D9C8D8130910529F4EAE3F0E08FEFFA
:10163000808304C0E1E3F0E08FEF808380E090E0FE
:10164000AAEFB3E48B879C87AD87BE876B857C85CB
:101650008D859E8520E030E04AE755E40E94170220
:10166000DC01CB018F839887A987BA876F81788542
:1016700089859A8520E030E040E85FE30E947103AD
:1016800088232CF481E090E09E838D833FC06F819E
:10169000788589859A8520E03FEF4FE757E40E94DF
:1016A000110318164CF56B857C858D859E8520E091
:1016B00030E040E251E40E941702DC01CB01BC01A2
:1016C000CD010E944100DC01CB019E838D830FC0C0
:1016D00080E991E09C838B838B819C810197F1F75A
:1016E0009C838B838D819E8101979E838D838D81C9
:1016F0009E81009769F78BCF6F81788589859A8560
:101700000E944100DC01CB019E838D838D819E81EF
:101710009A83898389819A810197F1F79A838983D2
:1017200076CF2F923F924F925F926F927F928F92DD
:101730009F92AF92BF92CF92DF92EF92FF920F9360
:101740001F93CF93DF93CDB7DEB7CA1BDB0B0FB66A
:10175000F894DEBF0FBECDBF09942A883988488827
:101760005F846E847D848C849B84AA84B984C884BD
:10177000DF80EE80FD800C811B81AA81B981CE0FB4
:10178000D11D0FB6F894DEBF0FBECDBFED01089599
:04179000F894FFCFFB
:10179400000000000000000001B0FF0108FF028209
:0217A400FF0044
:00000001FF
