:100000000C942A000C9434000C9434000C943400AA
:100010000C9434000C9434000C9434000C94340090
:100020000C9434000C9434000C9434000C94340080
:100030000C9434000C9434000C9434000C94340070
:100040000C9434000C9434000C9434000C94340060
:100050000C94340011241FBECFE5D8E0DEBFCDBF25
:100060000E94C0060C94C9060C940000DF93CF9345
:10007000CDB7DEB727970FB6F894DEBF0FBECDBF62
:100080009D838C831B82EC81FD818081843018F0FC
:1000900081E08B837DC0EC81FD819181EC81FD81CC
:1000A000828189238983EC81FD818081282F30E042
:1000B0003F832E838E819F818130910559F12E815E
:1000C0003F81223031052CF48E819F81009769F0A9
:1000D0005FC02E813F812230310589F18E819F8161
:1000E0008330910509F440C053C0EAE3F0E0808119
:1000F0009181982FEC81FD818181809589238A836C
:10010000EAE3F0E09A818981892B882F90E091833E
:1001100080833EC0E7E3F0E080819181982FEC81FD
:10012000FD818181809589238A83E7E3F0E09A81CC
:100130008981892B882F90E09183808329C0E4E313
:10014000F0E080819181982FEC81FD818181809503
:1001500089238A83E4E3F0E09A818981892B882FBF
:1001600090E09183808314C0E1E3F0E0808191818D
:10017000982FEC81FD818181809589238A83E1E339
:10018000F0E09A818981892B882F90E09183808388
:100190008B8127960FB6F894DEBF0FBECDBFCF91EF
:1001A000DF910895DF93CF9300D000D00F92CDB7A9
:1001B000DEB79B838A831982EA81FB818081843048
:1001C00018F081E089834CC0EA81FB818081282F6F
:1001D00030E03D832C838C819D818130910501F13C
:1001E0002C813D81223031052CF48C819D8100973A
:1001F00061F036C02C813D8122303105E1F08C81E7
:100200009D818330910511F12BC0AAE3B0E0EA8112
:10021000FB818281882F90E011969C938E9320C061
:10022000A7E3B0E0EA81FB818281882F90E01196FC
:100230009C938E9315C0A4E3B0E0EA81FB81828198
:10024000882F90E011969C938E930AC0A1E3B0E0B2
:10025000EA81FB818281882F90E011969C938E9396
:1002600089810F900F900F900F900F90CF91DF9199
:100270000895DF93CF93CDB7DEB727970FB6F894E5
:10028000DEBF0FBECDBF9D838C831B82EC81FD81C1
:100290008081843018F081E08B837DC0EC81FD810A
:1002A0009181EC81FD81828189238983EC81FD81AB
:1002B0008081282F30E03F832E838E819F81813083
:1002C000910559F12E813F81223031052CF48E8128
:1002D0009F81009769F05FC02E813F8122303105F8
:1002E00089F18E819F818330910509F440C053C00C
:1002F000EAE3F0E080819181982FEC81FD8181819A
:10030000809589238A83EAE3F0E09A818981892BA9
:10031000882F90E0918380833EC0E7E3F0E0808106
:100320009181982FEC81FD818181809589238A8339
:10033000E7E3F0E09A818981892B882F90E091830F
:10034000808329C0E4E3F0E080819181982FEC81E3
:10035000FD818181809589238A83E4E3F0E09A819D
:100360008981892B882F90E09183808314C0E1E3F9
:10037000F0E080819181982FEC81FD8181818095D1
:1003800089238A83E1E3F0E09A818981892B882F90
:1003900090E0918380838B8127960FB6F894DEBF1F
:1003A0000FBECDBFCF91DF910895DF93CF93CDB72F
:1003B000DEB727970FB6F894DEBF0FBECDBF9B8385
:1003C0008A837D836C831982EA81FB8180818430FA
:1003D00018F081E0898340C0EA81FB818081282F69
:1003E00030E03F832E838E819F8181309105E9F03B
:1003F0002E813F81223031052CF48E819F81009720
:1004000061F02AC02E813F8122303105B1F08E810A
:100410009F8183309105C9F01FC0E9E3F0E080813E
:100420009181EC81FD81808317C0E6E3F0E080815B
:100430009181EC81FD8180830FC0E3E3F0E0808156
:100440009181EC81FD81808307C0E0E3F0E0808151
:100450009181EC81FD818083898127960FB6F89484
:10046000DEBF0FBECDBFCF91DF910895DF93CF9355
:10047000CDB7DEB727970FB6F894DEBF0FBECDBF5E
:100480009B838A837D836C831982EA81FB818081CF
:10049000843018F081E0898376C0EA81FB81808115
:1004A000282F30E03F832E834E815F8141305105FC
:1004B00061F18E819F818230910534F42E813F81DC
:1004C0002115310569F05FC04E815F8142305105D1
:1004D00089F18E819F818330910509F440C053C01A
:1004E000E9E3F0E020813181EA81FB818181882F7D
:1004F00090E0A90102C0569547958A95E2F7CA0196
:100500008170EC81FD8180833EC0E6E3F0E02081D4
:100510003181EA81FB818181882F90E0A90102C0AD
:10052000569547958A95E2F7CA018170EC81FD8165
:10053000808329C0E3E3F0E020813181EA81FB81FF
:100540008181882F90E0A90102C0569547958A9530
:10055000E2F7CA018170EC81FD81808314C0E0E381
:10056000F0E020813181EA81FB818181882F90E058
:10057000A90102C0569547958A95E2F7CA01817094
:10058000EC81FD818083898127960FB6F894DEBFC8
:100590000FBECDBFCF91DF910895DF93CF9300D0F1
:1005A00000D000D0CDB7DEB79B838A836C831982DD
:1005B000EA81FB818081843018F081E0898340C02A
:1005C000EA81FB818081282F30E03E832D838D815D
:1005D0009E8181309105E9F02D813E8122303105E7
:1005E0002CF48D819E81009761F02AC02D813E817F
:1005F00022303105B1F08D819E8183309105C9F0A3
:100600001FC0EBE3F0E08C81882F90E09183808322
:1006100017C0E8E3F0E08C81882F90E0918380831D
:100620000FC0E5E3F0E08C81882F90E09183808318
:1006300007C0E2E3F0E08C81882F90E09183808313
:10064000898126960FB6F894DEBF0FBECDBFCF913D
:10065000DF910895DF93CF93CDB7DEB728970FB61C
:10066000F894DEBF0FBECDBF9D838C836E831B824B
:10067000EC81FD818081843018F081E08B837BC028
:10068000EC81FD8191818E8189238983EC81FD81BB
:100690008081282F30E038872F838F8198858130A3
:1006A000910559F12F813885223031052CF48F8145
:1006B0009885009769F05FC02F8138852230310519
:1006C00089F18F8198858330910509F440C053C02A
:1006D000EBE3F0E080819181982FEC81FD818181B5
:1006E000809589238A83EBE3F0E09A818981892BC5
:1006F000882F90E0918380833EC0E8E3F0E0808122
:100700009181982FEC81FD818181809589238A8355
:10071000E8E3F0E09A818981892B882F90E091832A
:10072000808329C0E5E3F0E080819181982FEC81FE
:10073000FD818181809589238A83E5E3F0E09A81B8
:100740008981892B882F90E09183808314C0E2E314
:10075000F0E080819181982FEC81FD8181818095ED
:1007600089238A83E2E3F0E09A818981892B882FAB
:1007700090E0918380838B8128960FB6F894DEBF3A
:100780000FBECDBFCF91DF910895DF93CF93CDB74B
:10079000DEB72A970FB6F894DEBF0FBECDBF9E839B
:1007A0008D836F8348871C82ED81FE818081843038
:1007B00018F081E08C830CC11A82198215C08F81D8
:1007C000882F90E0098002C0959587950A94E2F7FA
:1007D00081709070882319F089818B830AC0898188
:1007E0009A8101969A83898389819A8188309105BB
:1007F00034F3ED81FE818081282F30E03A8729870C
:1008000089859A858130910509F44AC029853A8500
:10081000223031052CF489859A85009771F0D8C073
:1008200029853A852230310509F46DC089859A857C
:100830008330910509F49AC0CBC088858130B9F422
:10084000ABE3B0E0EBE3F0E0408151818B81282FF6
:1008500030E081E090E0022E02C0880F991F0A94D8
:10086000E2F7842B952B11969C938E93B1C0ABE34A
:10087000B0E0EBE3F0E0408151818B81282F30E044
:1008800081E090E0022E02C0880F991F0A94E2F7DF
:10089000809590958423952311969C938E9398C070
:1008A00088858130B9F4A8E3B0E0E8E3F0E0408166
:1008B00051818B81282F30E081E090E0022E02C030
:1008C000880F991F0A94E2F7842B952B11969C931D
:1008D0008E937EC0A8E3B0E0E8E3F0E04081518170
:1008E0008B81282F30E081E090E0022E02C0880F3B
:1008F000991F0A94E2F78095909584239523119689
:100900009C938E9365C088858130B9F4A5E3B0E0EF
:10091000E5E3F0E0408151818B81282F30E081E0D8
:1009200090E0022E02C0880F991F0A94E2F7842BF0
:10093000952B11969C938E934BC0A5E3B0E0E5E315
:10094000F0E0408151818B81282F30E081E090E000
:10095000022E02C0880F991F0A94E2F780959095A5
:100960008423952311969C938E9332C08885813081
:10097000B9F4A2E3B0E0E2E3F0E0408151818B8181
:10098000282F30E081E090E0022E02C0880F991FEE
:100990000A94E2F7842B952B11969C938E9318C0A2
:1009A000A2E3B0E0E2E3F0E0408151818B81282FA7
:1009B00030E081E090E0022E02C0880F991F0A9477
:1009C000E2F7809590958423952311969C938E93BE
:1009D0008C812A960FB6F894DEBF0FBECDBFCF91A3
:1009E000DF910895DF93CF93CDB7DEB72B970FB686
:1009F000F894DEBF0FBECDBF9E838D836F83598772
:100A000048871C82ED81FE818081843018F081E06E
:100A10008C838AC01A82198215C08F81882F90E03A
:100A2000098002C0959587950A94E2F781709070CD
:100A3000882319F089818B830AC089819A81019664
:100A40009A83898389819A818830910534F3ED8175
:100A5000FE818081282F30E03B872A874A855B858D
:100A60004130510549F18A859B858230910534F4E6
:100A70002A853B852115310561F056C04A855B8585
:100A80004230510561F18A859B8583309105D1F112
:100A90004BC0E9E3F0E0208131818B81882F90E029
:100AA000A90102C0569547958A95E2F7CA0181705F
:100AB000E885F985808338C0E6E3F0E02081318164
:100AC0008B81882F90E0A90102C0569547958A95A1
:100AD000E2F7CA018170E885F985808325C0E3E3E8
:100AE000F0E0208131818B81882F90E0A90102C044
:100AF000569547958A95E2F7CA018170E885F98590
:100B0000808312C0E0E3F0E0208131818B81882F67
:100B100090E0A90102C0569547958A95E2F7CA016F
:100B20008170E885F98580838C812B960FB6F894C7
:100B3000DEBF0FBECDBFCF91DF910895DF93CF937E
:100B4000CDB7DEB729970FB6F894DEBF0FBECDBF85
:100B50009E838D836F831C82ED81FE818081843032
:100B600018F081E08C839AC01A82198215C08F8197
:100B7000882F90E0098002C0959587950A94E2F746
:100B800081709070882319F089818B830AC08981D4
:100B90009A8101969A83898389819A818830910507
:100BA00034F3ED81FE818081282F30E0398728875A
:100BB000888599858130910569F1288539852230AC
:100BC00031052CF488859985009769F067C02885E0
:100BD000398522303105A9F18885998583309105C1
:100BE00009F446C05BC0ABE3B0E0EBE3F0E040816A
:100BF00051818B81282F30E081E090E0022E02C0ED
:100C0000880F991F0A94E2F78427952711969C93E1
:100C10008E9344C0A8E3B0E0E8E3F0E04081518166
:100C20008B81282F30E081E090E0022E02C0880FF7
:100C3000991F0A94E2F78427952711969C938E9327
:100C40002DC0A8E3B0E0E5E3F0E0408151818B8165
:100C5000282F30E081E090E0022E02C0880F991F1B
:100C60000A94E2F78427952711969C938E9316C0D9
:100C7000A8E3B0E0E2E3F0E0408151818B81282FCE
:100C800030E081E090E0022E02C0880F991F0A94A4
:100C9000E2F78427952711969C938E938C81299651
:100CA0000FB6F894DEBF0FBECDBFCF91DF91089590
:100CB000DF93CF9300D000D0CDB7DEB7198283E0A9
:100CC0008A8384E08B838FEF8C83CE0102960E940F
:100CD0003600898380E00F900F900F900F90CF9196
:100CE000DF910895DF93CF9300D000D0CDB7DEB76A
:100CF000198283E08A8384E08B838FEF8C83CE011B
:100D000002966FEF0E942A03898380E00F900F9074
:100D10000F900F90CF91DF910895DF93CF9300D084
:100D200000D0CDB7DEB7198283E08A8384E08B835D
:100D30008FEF8C83CE01029660E00E942A038983A4
:100D400080E00F900F900F900F90CF91DF9108955A
:100D5000DF93CF930F92CDB7DEB70E9458068983F9
:100D60000F90CF91DF910895DF93CF930F92CDB77E
:100D7000DEB70E948D0689830F90CF91DF91089591
:100D8000DF93CF93CDB7DEB70E94A8060E94B406CA
:060D9000FDCFF894FFCF37
:00000001FF
