:100000000C942A000C9434000C9434000C943400AA
:100010000C9434000C9434000C9434000C94340090
:100020000C9434000C9434000C9434000C94340080
:100030000C9434000C9434000C9434000C94340070
:100040000C9434000C9434000C9434000C94340060
:100050000C94340011241FBECFE5D8E0DEBFCDBF25
:100060000E94FC020C9401030C940000FC018081AE
:10007000843010F081E00895218132813223813073
:1000800089F0813028F08230B9F08330F1F41FC05C
:100090008AB39BB320952823232B822F90E09BBB10
:1000A0008ABB13C087B398B320952823232B822FB4
:1000B00090E098BB87BB09C084B395B320952823F3
:1000C000232B822F90E095BB84BB80E0089581B301
:1000D00092B320952823232B822F90E092BB81BBE3
:1000E00080E00895FC018081843010F081E0089563
:1000F000813061F0813028F0823069F0833079F40A
:1001000010C0828190E09BBB8ABB09C0828190E0D5
:1001100098BB87BB04C0828190E095BB84BB80E024
:100120000895828190E092BB81BB80E00895FC013C
:100130008081843010F081E0089521813281322362
:10014000813089F0813028F08230B9F08330F1F4C9
:100150001FC08AB39BB320952823232B822F90E0C6
:100160009BBB8ABB13C087B398B320952823232B4E
:10017000822F90E098BB87BB09C084B395B32095CC
:100180002823232B822F90E095BB84BB80E0089529
:1001900081B392B320952823232B822F90E092BB2A
:1001A00081BB80E00895FC01DB01E081E43010F0C8
:1001B00081E00895E13051F0E13028F0E23049F07B
:1001C000E33051F40BC089B39AB305C086B397B33B
:1001D00002C083B394B38C9380E0089580B391B34D
:1001E0008C9380E00895FC01DB018081843010F065
:1001F00081E00895813051F0813028F0823049F05B
:10020000833089F412C089B39AB305C086B397B31B
:1002100002C083B394B3018002C0969587950A9477
:10022000E2F781708C9380E0089580B391B30180F0
:1002300002C0969587950A94E2F781708C9380E0CE
:100240000895FC01E081E43010F081E00895E13090
:1002500061F0E13028F0E23069F0E33079F410C069
:10026000862F90E09CBB8BBB09C0862F90E099BB8A
:1002700088BB04C0862F90E096BB85BB80E00895C4
:10028000862F90E093BB82BB80E00895FC01308113
:10029000343010F081E0089521816223313089F0FB
:1002A000313028F03230B9F03330F1F41FC08BB365
:1002B0009CB320952823622B862F90E09CBB8BBBA0
:1002C00013C088B399B320952823622B862F90E022
:1002D00099BB88BB09C085B396B320952823622BB0
:1002E000862F90E096BB85BB80E0089582B393B3E0
:1002F00020952823622B862F90E093BB82BB80E061
:100300000895FC01E081E43010F081E0089520E0E0
:1003100030E070E0CB01022E02C0959587950A94DB
:10032000E2F780FF02C0522F05C02F5F3F4F2830F9
:10033000310581F7E13039F1E13038F0E23009F48C
:1003400040C0E33009F06AC05AC0413061F42BB3B9
:100350003CB381E090E002C0880F991F5A95E2F704
:10036000822B932B0DC02BB33CB381E090E002C0F5
:10037000880F991F5A95E2F78095909582239323D1
:100380009CBB8BBB4BC0413061F428B339B381E0D7
:1003900090E002C0880F991F5A95E2F7822B932BA9
:1003A0000DC028B339B381E090E002C0880F991FD7
:1003B0005A95E2F7809590958223932399BB88BB49
:1003C0002DC0413061F425B336B381E090E002C026
:1003D000880F991F5A95E2F7822B932B0DC025B3F6
:1003E00036B381E090E002C0880F991F5A95E2F77A
:1003F000809590958223932396BB85BB0FC0413097
:1004000079F422B333B381E090E002C0880F991FE2
:100410005A95E2F7822B932B93BB82BB80E0089521
:1004200022B333B381E090E002C0880F991F5A9540
:10043000E2F7809590958223932393BB82BB80E063
:100440000895FC01DA01E081E43010F081E00895C4
:1004500020E030E070E0CB01022E02C09595879538
:100460000A94E2F780FD05C02F5F3F4F2830310529
:1004700091F7E13051F0E13028F0E23049F0E3301B
:1004800081F411C089B39AB305C086B397B302C093
:1004900083B394B302C0969587952A95E2F781704D
:1004A0008C9380E0089580B391B302C096958795B0
:1004B0002A95E2F781708C9380E00895FC01E08139
:1004C000E43010F081E0089520E030E070E0CB01EE
:1004D000022E02C0959587950A94E2F780FF02C02C
:1004E000422F05C02F5F3F4F2830310581F7E130A3
:1004F000A9F0E13028F0E230A1F0E330F9F420C0B7
:100500002BB33CB381E090E002C0880F991F4A955D
:10051000E2F7822793279CBB8BBB10C028B339B36B
:1005200002C025B336B381E090E002C0880F991F66
:100530004A95E2F78227932799BB88BB80E008950C
:1005400022B333B381E090E002C0880F991F4A952F
:10055000E2F78227932799BB88BB80E00895DF9359
:10056000CF9300D00F92CDB7DEB783E0898384E0CC
:100570008A838FEF8B83CE01019660E00E94460153
:1005800080E00F900F900F90CF91DF910895DF934F
:10059000CF9300D00F92CDB7DEB783E0898384E09C
:1005A0008A838FEF8B83CE0101966FEF0E94460105
:1005B00080E00F900F900F90CF91DF910895DF931F
:1005C000CF9300D00F92CDB7DEB783E0898384E06C
:1005D0008A838FEF8B83CE0101960E94360080E0E4
:1005E0000F900F900F90CF91DF9108950E94AF026E
:1005F00008950E94DF0208950E94F9020E94F60207
:06060000FDCFF894FFCFCE
:00000001FF
